:020000040001F9
:10600000F82F002039610100536101005561010042
:106010000000000000000000000000000000000080
:1060200000000000000000000000000057610100B7
:106030000000000000000000596101005B610100E8
:106040005D6101005D610100456401005D61010069
:106050005D61010000000000896201005D610100D6
:106060005D6101005D6101005D6101005D61010034
:106070005D6101005D6101005D6101005D61010024
:106080005D610100596301005D6101005D61010016
:10609000796301005D610100CD6301005D61010074
:1060A0005D6101005D610100000000000000000072
:1060B00000000000000000000000000000000000E0
:1060C0000348854600F0B0F800480047F58F01000E
:1060D000F82F0020056885F3088846680A4AEFF320
:1060E00005839A42304602D1084CA6463047074CF9
:1060F000064D0646064FF0B4034C034D024E024FC8
:10610000F0B404480047000000000000FFFFFFFF5C
:1061100000000021F9FFFFFF401E00BF00BF00BFCD
:1061200000BF00BF00BF00BF00BF00BF00BF00BF77
:1061300000BFF1D1704700000321094802680A43FB
:106140000260084802680A4302600748804707481F
:106150000047FEE7FEE7FEE7FEE7FEE7FEE700009A
:106160002405004054050040F1630100C1600100B6
:1061700030B50B46014600202022012409E00D46DF
:10618000D5409D4205D31D469540491B2546954067
:1061900040191546521E002DF1DC30BD10B5431AD2
:1061A000934209D28318881803E0401E01785B1ED1
:1061B0001970521EF9D210BD03460B439B0703D042
:1061C00009E008C9121F08C0042AFAD203E00B78BC
:1061D0000370401C491C521EF9D210BDD2B201E01E
:1061E0000270401C491EFBD270470022F6E710B532
:1061F00013460A4604461946FFF7F0FF204610BD35
:10620000421C0178401C0029FBD1801A704730B530
:1062100004460020034600E05B1C934203D2E05C8E
:10622000CD5C401BF8D030BD064C0125064E05E084
:10623000E36807CC2B430C3C98471034B442F7D3A7
:10624000FFF742FF1CA301003CA3010030B58C18EE
:106250000278401C13071B0F01D10378401C120960
:1062600006D10278401C03E005780D70401C491CE3
:106270005B1EF9D101E00B70491C521EFBD1A142FB
:10628000E6D3002030BD0000F8B51F4805691F495E
:106290000020C863074632E014213A464A43416869
:1062A000806854180121B940014226D0E068C643F5
:1062B00020686E4006403146204603F0B3FB12488A
:1062C000006968400CD00543E0682168C04368401D
:1062D000084001460090204603F0A4FB00980643C6
:1062E0003046A168A84301402A4660683240104009
:1062F00002460A4301D0226990477F1CFFB204483E
:1063000041788F42C8D3F8BD00050050406100407D
:10631000182100208307FF22DB0E9A408907090E0F
:10632000994000280BDA0007000F08388308084856
:106330009B001818C36993430B43C36170478308DC
:1063400004489B001B181868904308431860704766
:1063500000ED00E000E400E010B506490020086010
:1063600048608860C860034940390860486003F0AD
:106370002BFE10BD40110140FEB50020C043124D60
:1063800002906869019068462E6902F0F1FA0746AA
:1063900002F06EFD0446002F08D002AA0199009871
:1063A00002F006FB029802F0ADFD06E0029802F052
:1063B000A9FD002801D1002C02D0304601F06AFC72
:1063C00000206871FEBD00002421002010B50748A0
:1063D0004068002807D08047002803D000221146DB
:1063E00000F038FA10BD02F0BFFC10BD48210020BB
:1063F00010B502F007FD002805D00E490C48486092
:10640000C8130D4988610D48018CC9B201290ED10C
:10641000818C09070BD1018D0906090F042906D1CA
:10642000808D0006000F02D105490120886010BD53
:10643000DFFF07C000050040006C0040C00F00F007
:10644000000600407CB51B4CA0681B4E00250028B0
:1064500018D0A56019488069C1B2194800F01DFA2A
:10646000002805D001216A4611700190684607E0B6
:106470001348C1688068081A012803D1684605706E
:10648000B1688847E069002803D0E561032002F085
:1064900039FF606A00280BD06562084980390868B6
:1064A000086002216A4611700190B1686846884709
:1064B0007CBD000000210040D820002000250040C5
:1064C000CC26002030B47446641E2578641CAB4290
:1064D00000D21D46635D5B00E31830BC184702E044
:1064E00008C8121F08C1002AFAD17047704700205F
:1064F00001E001C1121F002AFBD1704738B50D4CD5
:106500006078022802D00C490120886069460B4857
:1065100000F0B2F9002802D000F016F838BD0848A3
:10652000802181606A46074B1278DA61022262702C
:10653000416038BDD820002000200040DC2600202B
:1065400000230040002500401CB506490120C8601A
:106550000549487003206A46107089686846884774
:106560001CBD000000200040D8200020044900206D
:10657000487004490122CA604A60034908607047B4
:10658000D82000200020004000250040F7B582B050
:1065900000260546167000781446002805D02846C7
:1065A000039902F0B3FD06002DD1A87800281BD076
:1065B0002078039F001D1F2824D8684679DF002813
:1065C00021D121780322481C20707A542178192285
:1065D000481C20707A542078C1196846008803F05E
:1065E0007DFD217840182070A988002923D0012042
:1065F0008446AA680398002A07D0227853189B1C67
:106600001F2B04D90C2005B0F0BD0720FBE7134673
:10661000521C2270491CC15422786746511C2170BB
:1066200087542378AA881818A968FFF7B7FD20783F
:10663000297940182070E868002815D000214156BB
:1066400022788C46D01C03991F28DBD8501C0223CB
:1066500020708B5422780A23501C20708B54207891
:106660006246431C23700A54288A002809D0284611
:106670000094062202211030039B03F0ADFD0600BA
:10668000C1D1288B002809D0284600940722032175
:106690001830039B03F0A0FD0600B4D1288C2F46D0
:1066A0002037002808D00094152214213846039B77
:1066B00003F092FD0600A6D1A86A002805D0224664
:1066C000039901F039FB06009DD1E86A002805D046
:1066D0002246039902F0E8FC060094D1387D002898
:1066E00006D022462846039903F0FAF906008AD11B
:1066F000304688E700B593B006206946164A087010
:1067000007CA0FAB07C3382101A8FFF76EFD0220AF
:1067100069460871012088710881032003918883EC
:106720000FA80890002101A800F07CFB002803D0EE
:106730000022114600F08EF814210848FFF755FD9D
:106740000648002101704160017228210182B421B4
:10675000418213B000BD0000A0A20100C8240020A7
:1067600008B5684602F06CFE002803D000221146EE
:1067700000F070F80098002803D00B490120487001
:1067800008BD0A4873DF002803D00022114600F03C
:1067900061F8022000F0FAFF0028F1D00022114633
:1067A00000F058F808BD000000200020C824002098
:1067B000044842680121C9050B46934383600A409F
:1067C000C26070470005005010B5054841680029B7
:1067D00003D0407800F0BEF810BD082010BD0000C6
:1067E000FC200020F8B50C46052A01D20720F8BD90
:1067F0001449154D48600C70CB608A60002101235C
:106800000BE0E200121816789778B600BF007619F0
:10681000376016781A46B24011432246641EE4B22D
:10682000002AEED10748094B0A46401C00F0DCF86C
:106830000028DCD10348064A0021103000F010F98E
:10684000F8BD0000FC20002000070050A58B0100CF
:10685000817E0100BFF34F8F03490248C860BFF338
:106860004F8FFEE70400FA0500ED00E0014B1B68C6
:1068700018470000A4260020C26883689A420AD004
:10688000826883881A4003689A5C0A708168491C90
:1068900081600020704705207047C2688368D31A62
:1068A0008288934208D8C36813400268D154C168F3
:1068B000491CC160002070470420704710B50029B2
:1068C00003D08A070024002A01D0072010BD0F4AF8
:1068D0000B46516010701421547041431846946067
:1068E000FFF783FC00200A49C04388600948402123
:1068F0000160094A1068FF231B0498430B041843E6
:10690000106006480160002010BD00001821002022
:106910000063004080E200E004E400E000E100E009
:106920000A4B5A68002A04D05B78984203D30720A8
:10693000704708207047142358438018044A12698E
:106940000068024000200A60704700001821002003
:1069500000050050F0B51F4A5168002904D0537853
:10696000984203D30720F0BD0820F0BD1A4B002544
:10697000DD631A4B1C699768002F02D1184EDB05A6
:106980007360012686403E439660142250434218AD
:10699000D560002201230D5893401D4215D01C42A2
:1069A00002D003252D0405E001256D044618F76883
:1069B0001F43F7600B4B9600F3181E6803273F0434
:1069C000BE431E601E682E431E60521C202AE1D367
:1069D0000020F0BD1821002040610040000500505B
:1069E0000063004000070050F8B5114F84467D68F1
:1069F000002D07D0002B07D078783C78A04205D333
:106A00000420F8BD0820F8BD0720F8BD0E46142468
:106A1000164344432E5164192361A26061606146AC
:106A20000870411C797002F0CDFC0020F8BD000018
:106A30001821002038B50246084814230178074C75
:106A400059430818C368CC341B01E4580179C38842
:106A5000009343690C30A04738BD0000EC260020AD
:106A600070B5114CA568002D06D0002A06D000286C
:106A700004D00023247809E0082070BD072070BDF1
:106A800024265E43AE5D002E04D05B1CA342F7DBE0
:106A9000042070BD242401265C432E5564196170C6
:106AA000A2610360002070BD24210020FFB598077B
:106AB000002481B01E4615460F4600280BD1002E3B
:106AC00009D002F08DFF22490A9888610F70324682
:106AD00000208E6008E0072005B0F0BD242343436A
:106AE000D4549B181C75401CB842F7DB2420474344
:106AF000BB19032048700F461846CB601946183062
:106B0000002218232E465E43D3005B181C705C7075
:106B10009D7058603018521C032AF5DB0020C043DA
:106B20003861BC70FC7001240A482405046003210C
:106B30001420FFF7EFFB08480460084C0198A060A0
:106B400003211120FFF7E6FB606878610020C3E7AE
:106B50002421002080E200E000E100E00015014077
:106B6000FEB504461D48174682680D46002A0CD023
:106B700001788C4201D2052D01D20720FEBD2146AD
:106B800024235943535C012B01D00820FEBD8818F3
:106B9000407801281DD0002603F0E2FAC0000F491A
:106BA0000190C9684018694603F004FB002812D020
:106BB000012101700A49446049680830E2C0074970
:106BC0000198C96841180098487003F08BF90020BB
:106BD000FEBD2E46E0E70420FEBD0000242100207B
:106BE00000150140F8B5144D0446A868002809D0E6
:106BF00029788C4201D30720F8BD24216143405CF1
:106C0000012801D00820F8BD03F0AAFAC600E86800
:106C10006946301803F0CEFA00280AD0022101702C
:106C20004460E86831180098487003F05BF9002070
:106C3000F8BD0420F8BD00002421002010B5184C38
:106C4000012100220904E068FFF78AFF002803D031
:106C500000221146FFF7FEFD01210022C903206931
:106C6000FFF77EFF002803D000221146FFF7F2FD58
:106C700000220C496069FFF773FF002803D000224F
:106C80001146FFF7E7FD05210022C903A069FFF7C0
:106C900067FF002803D000221146FFF7DBFD10BD7F
:106CA0000020002066260000F0B50546007D002487
:106CB00093B00E4600280DD00120014668461031E1
:106CC00003940173717B4173817BF9200140684615
:106CD000891C81731C2104A8FFF787FA6946087C88
:106CE00002210843694608742A7DEF21002A02D058
:106CF0001022104300E008406A461074059407947F
:106D00000894287D002800D003A8099001270A9440
:106D100010469771304A82800094B27B0270F27BF9
:106D200042708078F9221040F722801C1040EF2139
:106D300008404108490068468170317B0172142186
:106D40000BA8FFF752FA01A80B9068460C908786B3
:106D5000C486078702A80F90A888AB1D0BAA04A9B8
:106D6000A2DF002835D1B068002830D0684687718E
:106D70001A4981800094317C0170002001466846E8
:106D800041708078F9210840F721801C0840EF21EC
:106D90000840410849006846817011A8B16800F0B8
:106DA000A5FB064614210BA8FFF71FFA01A80B90BC
:106DB00068460C908686C486068711A80F902A46DE
:106DC000E8880E320BA9A3DF002802D100E0EC8195
:106DD000002013B0F0BD0000192A000008290000AF
:106DE00010B50C490C4800F05DFBC1B20948683889
:106DF00000F04CF800280BD0082809D00749884239
:106E000006D00749884203D000221146FFF722FD31
:106E100010BD0000442500201C200020043000008C
:106E20000134000070B50D4692B000216A46117021
:106E300007241171002812D08188002905D08168AB
:106E4000002902D00978490702D4204612B070BD4B
:106E500002A9FFF79BFB0028F8D102AE00E0002654
:106E6000002D0BD0A8880028EFD101AA0AA9284636
:106E7000FFF78CFB0028E9D10AAA00E0002268464F
:106E800003790178304672DFE0E7000033B585B062
:106E900004466946227C097E00208A4222D00125D0
:106EA000684605822174E08806AB04AA0021A4DFAD
:106EB000002817D1608A0D49884215D0207D00280E
:106EC00012D00020009001900290694603900D823C
:106ED000E2880A808D70888004A8029006A803903A
:106EE000608AA6DF07B030BD0820FBE7FFFF000087
:106EF00038B50446086820600020C04360820879E5
:106F00002075FF200D4620740121684681700649D6
:106F10000180221D69460120A0DF002803D12946F7
:106F20002046FFF7C1FE38BD0F18000038B50A88AB
:106F3000102A1AD0112A1AD0502A1BD1027D002AF9
:106F400018D0CA884389891D9A4213D10A8B022A14
:106F500010D10268002A0DD0CB7E8C7E190221430D
:106F6000C907C90F07D0002106E0898801E0002188
:106F7000C943418238BD01216B461970694690476B
:106F800038BD000070B5054601461C220F48FFF7CA
:106F900005F90F4C002626702968002907D0082221
:106FA000A018FFF7FBF8204608307ADF02E0084817
:106FB00008307BDF002808D1401E608004486670DE
:106FC000044A0021001DFFF74BFD70BDB0260020D4
:106FD000C0200020FDA00100F8B5224C0288002747
:106FE0001F4DE689102A16D029464968112A21D05A
:106FF000122A2DD0502A1CD1C288801DB24218D12D
:10700000028B022A15D1C27E837E10021843C0076C
:10701000C00F0CD112E08188698001461048082217
:107020000E311030FFF7BAF86F70002E01D100F06A
:10703000CBFEF8BD0020C04368806F700846FFF7A4
:10704000D1FD0028F5D0A1690029F2D08847F8BD0C
:10705000811D034808221030FFF7A0F8E7E7000081
:10706000C0200020B026002010B502484068FFF77D
:10707000B9FD10BDC020002030B585B00D4604001C
:1070800039D0002D37D06868002834D00020C043A4
:107090001A4B20800FCB049301AB07C318486946F5
:1070A000088001A8811E63DF002822D1221D6946C5
:1070B0000120A0DF00281CD168468078A0712046FE
:1070C00001F0B2F8002814D1204601F069F8002838
:1070D0000FD12946204601F0E9F8002809D1686857
:1070E000A062A868002800D0E0620649012008706C
:1070F000002005B030BD0E20FBE70000DCA201003F
:1071000030150000542000203EB5002820D0002972
:107110001ED0826A002A1BD00A88102A19D0112A90
:1071200028D0502A17D0512A12D104468879891DB7
:1071300002280DD14888228A904209D12046891C14
:1071400002F072F8002803D0E16A002900D08847D5
:107150003EBD898810E0CA8803899A42F8D1082286
:107160006B461A708A7F1A7120310291826A6946D1
:1071700090473EBD0021C94301803EBD30B585B07A
:10718000002822D00388134CA34220D0124B1B7836
:10719000002B1CD0104B10255B1C1D705970002457
:1071A00001259A70032269460A8200940194029490
:1071B0000394028A0A808D708C8004A90291039343
:1071C00000886946A6DF05B030BD0E20FBE7082029
:1071D000F9E70000FFFF0000542000207FB50446BF
:1071E0000121684681714A4981804A4A01A90120EA
:1071F000A0DF00287ED1228825463C35002A09D010
:1072000044482B46801C00904348616800F034FCE1
:1072100000287BD12289002A0AD03E482B460A301A
:1072200000903D48E168401F00F026FC00286DD129
:10723000228A002A0AD037482B461230009036485E
:107240006169001F00F018FC00285FD1228B002A22
:107250000AD030482B461A3000902F48E169801E32
:1072600000F00AFC002851D1228C002A0AD02948BB
:107270002B46223000902848616AC01E00F0FCFBBB
:10728000002843D1228D002A0AD022482B462A30DA
:1072900000902148E16A401E00F0EEFB002835D145
:1072A000216B00290ED002A802F0F0FD19482B46F0
:1072B000323000901848082202A9801F00F0DCFB41
:1072C000002823D1606B00280BD012492B463A319D
:1072D0000091027901681048401C00F0CDFB0028A5
:1072E00014D1A16B002910D002A802F089F8094836
:1072F000423000E00AE0009007482B46072202A92E
:10730000273000F0B9FB002800D1002004B070BD88
:107310000A1800005C200020292A000010B504464D
:1073200001F00CF821460A4800F06EF808482146A2
:107330001838FFF7FBFD2046FFF74EFE04482146B4
:107340008030FFF7E1FE204601F01CFF10BD000079
:10735000F424002030B50446008C134A8BB09042D0
:107360001FD006AA204601F0BBFC694605460880EE
:107370000020019002900390049022898A800122CB
:107380008A71088106A803910490208C01A9A6DFC8
:10739000002804D169460988A94200D00C200BB00E
:1073A00030BD0820FBE70000FFFF000038B50446B1
:1073B00008682060087960710020C0430D46208471
:1073C0000020222108554C21085301216846817074
:1073D0000C490180A21D69460120A0DF00280FD1C1
:1073E0002946204601F024FC002809D1A86800287D
:1073F00005D02946204600F0B1F8002800D1002031
:1074000038BD00000D18000038B50A88102A17D0C2
:10741000112A17D0502A18D1CA888389891D9A4207
:1074200013D10A8B022A10D10268002A0DD0CB7E1C
:107430008C7E19022143C907C90F07D0002106E03D
:10744000898801E00021C943018438BD01216B46D0
:1074500019706946904738BD70B5054604464035F9
:10746000A8890E46142807D12622A118881EFEF7E7
:1074700095FEA889401EA88180B241000919401CD0
:10748000A8818E8470BD2030817070470A7B002AED
:1074900003D049680160002102E009680160012110
:1074A0000171704710B504798B680268002C08D010
:1074B00049688C1A9C4201D9D11807E0016000216B
:1074C00008E00968541A9C4202D9D11A016002E00E
:1074D000016001210171006810BD70B504460D46C0
:1074E0000846FEF78DFE2080656070BD0A78027048
:1074F000497841700220704708B500235022144992
:10750000082002F0D1FB002803D000221146FFF72B
:10751000A1F90020694600900870684660DF0028E5
:1075200003D000221146FFF795F90A4802F0B2FB9A
:10753000002803D000221146FFF78CF9064802F01C
:10754000CBFB002803D000221146FFF783F908BDCA
:10755000642400201D730100659E0100F0B58FB00A
:107560000D4606461C216846FEF73FFE6846017838
:10757000022001436846017000240194039404949E
:107580000594012708A80694877015496846018468
:107590000794E97B0177297C4177807FF9210840B6
:1075A000F721801C0840EF21084041084900684647
:1075B0008177142109A8FEF718FE08A8099007A8EA
:1075C0000A9068468785C4850786A8680D9033466B
:1075D000F088103309AA6946A2DF0FB0F0BD0000A1
:1075E000382A00001CB5044681786A460C4801F030
:1075F0003BFF002812D160781821484309491C2319
:1076000040181822694601F0E3FF064806493C305D
:10761000807A80000A582146684690471CBD0000C9
:10762000B820002068260020FCA2010070B51C4D87
:1076300068688047B1203CDF002803D00022114653
:10764000FFF708F911DF002803D000221146FFF7E9
:1076500001F9144C606913DF002803D000221146A1
:10766000FFF7F8F82878002801D000F06BFD012121
:107670000D4A880510600D4A002012680B4B8033BC
:107680000D468540154204D0C606F60E0D46B5409F
:107690001D60401C2028F3D3606900F009F870BD1C
:1076A000F02000200010001080E200E000E100E087
:1076B00010B5FEF70FFD10BD30B4002201290BD12B
:1076C0000B49C968002907D00A4B94001C59844211
:1076D00004D0521C042AF8D330BC7047042AFBD2D1
:1076E00003481030805C0028F6D030BC084700000A
:1076F00034200020ACA2010010B5024604280DD2AF
:1077000007480069074C9200A45CC3430122002093
:10771000A2401A4000D001220A7010BD072010BDFF
:1077200000050050ACA20100F0B500210F4D01276B
:107730000F4A03231B048C002E593C468C40044204
:1077400007D0B400A41826689E43266026681E430E
:1077500005E0B400A41826689E43266026682660CB
:10776000491C0429E7D30020F0BD0000ACA20100B1
:107770000007005002460020042A02D2024B99540E
:1077800070470720704700004420002010B5054ACC
:107790000146127A0020D20702D0084600F054F8C1
:1077A00010BD000034200020F8B506462148002412
:1077B0008660C26041600F46B0071DD5002528468F
:1077C0000B30C1B22846FFF7D5FF6D1C0446042DCF
:1077D00001D2002CF3D07A08002304211648FFF7C9
:1077E00001F8002803D000221146FFF733F8002CDF
:1077F00002D1FEF7E9FF0446F00708D00F210F4839
:107800004904C161090181600022C2608161002CCC
:107810000ED108480A4A00211430FFF721F904006C
:1078200006D10448074A01211830FFF719F9044628
:107830002046F8BD34200020BCA201000005005005
:10784000598E0100B1670100FEB5784906464F68C0
:107850004B690093BB00FB180020012201935205E5
:107860000546734C3300FEF72DFE180D13133749F0
:10787000596C828E858E97A1A5A5A5A5A5C3C8CD57
:10788000D4DADA120B225205A260E5600D70FEBD5B
:1078900005208005A060E56060680F235B05584007
:1078A000800209D5A260E560022E02D1E120C0006D
:1078B0000AE07D20400107E0E260A560022E01D1D0
:1078C000C82001E0FF2091300E706421FEF750FCCB
:1078D00078430022014646E005208005A060E5606F
:1078E00060680F235B055840800204D5A260E56004
:1078F00019204001E8E7E260A560E1E70520800586
:10790000A060E56060680F235B055840800202D5E7
:10791000A260E560CDE7E260A560D3E705208005C1
:10792000A060E56060680F235B055840800202D5C7
:10793000A260E56001E0E260A5600E7079000022BF
:1079400011E005208005A060E56060680F235B05FD
:107950005840800202D5A260E56001E0E260A560C7
:107960000E70002239460098FFF7FAF8FEBD052395
:107970009B0544E06068012189050A468243A260B4
:107980000840E06010E061680120800502468A43FB
:10799000A2600140E160E4E76168012080050246E1
:1079A0008A43A2600140E1600199C8E70F214905BF
:1079B000E1601BE00F468869FFF714F911218A1B6B
:1079C0001C4E01D0002802D0A660E560FEBD012A51
:1079D0000BD91046C82148436421FEF7C9FB7968DA
:1079E00000224143B869FFF7BBF8E660A560FEBD21
:1079F0000F225205A260E56015E007239B05A360F6
:107A0000E5600EE00D225205A260E56001229205BC
:107A100007E00322D205A260E560921001E00F2288
:107A20005205E260A5600E70FEBD0000342000200B
:107A3000000500500000800010B50E4AD368002BEE
:107A40000AD0CAB2017840689847002803D00022C3
:107A50001146FEF7FFFE10BD012906D00029FAD11C
:107A6000037842681846904710BD037801214268A8
:107A7000F8E70000FC200020FFB58FB01E46154639
:107A80000F0004D1002211461046FEF7E3FE002D40
:107A900004D1002211461046FEF7DCFE1C21684688
:107AA000FEF7A3FB68460178022001436846017097
:107AB00000240194039404940594012108A80694D9
:107AC000817068460F990184079431780177717845
:107AD0004177807FF9210840F721801C0840EF2181
:107AE00008404108490068468177142109A8FEF73B
:107AF0007CFB08A8099007A80A9068468585C4857C
:107B0000058604480D9709AA69460088189BA2DFDC
:107B100013B0F0BD5C200020F8B5384914230A7872
:107B20000F205A4354183649227926698F88241D1C
:107B3000022A1BD001252D07042A2AD0052A5BD151
:107B4000286981B23046FEF713FB0146A3882869F5
:107B50009A1980B24843101A82086088181886194A
:107B600028694B1C80B25843801B34E0B8026288FD
:107B70002169121A0918A3883018181801239B02CA
:107B80009A4202D2920821DF31E0FF22013221DF46
:107B90002DE0A36819481901CC30081801894289E1
:107BA0004068B04203D160885143814218D0022B13
:107BB00016D0286981B23046FEF7DAFA0146286904
:107BC00080B24843301A820828694B1C80B258435F
:107BD00063889B19C01A8308204602F089F806E0E2
:107BE000286981B23046FEF7C3FAC01920DF0028A9
:107BF00002D1024901228A70F8BD0000EC26002063
:107C0000E420002010B5064900204978002906D05C
:107C1000FFF782FF002802D0112800D1002010BDFC
:107C2000EC26002014225043054A002180180171DF
:107C3000C18001220161C260416101817047000081
:107C4000EC260020F8B5124C069E65780A2D1DD052
:107C500027787D19EDB20A2D01D30A3DEDB2142724
:107C60007D432D1928716A6103C92961E860EB80A1
:107C70002E81A1780020002904D1FFF74DFF1128A3
:107C800000D100206178491C6170F8BD0420F8BD66
:107C9000EC260020F8B5224801694A1C3DD0242278
:107CA0005143826889184E681E494C6847690079BB
:107CB000E11B0D022D0AED1C002814D101201A4AE7
:107CC00000045060184A403A50601849400008606B
:107CD000174908601749012008602F20FEF71CFA99
:107CE0000F4901200871B54200D23546E81900025B
:107CF0000C49000A403108600A494968001B091B09
:107D00000902090A0002000AC91C814204D90120A3
:107D10000649400480390860F8BD01F061FEF8BDF5
:107D200024210020001501404013014080E200E0C2
:107D300000E100E000100140F8B50D46117806465C
:107D4000881D14461F2801D90C20F8BD3388072050
:107D5000062BFAD31927FF01BB4202D9164A9342D8
:107D6000F3D17288062AF0D3BA4202D9124FBA422E
:107D7000EBD1114FBB4203D0BA4201D09342E4D8B9
:107D8000481C052220706A5420781222411C217060
:107D90002A5420784119308802F0A0F9217840183F
:107DA000C0B220704119708802F098F9217840180B
:107DB00020700020F8BD0000FFFF000010B5002279
:107DC0001146FEF747FD10BDF8B5164801F00CF856
:107DD000144D0026103D144C002807D0616900297D
:107DE0001BD001206A461070684615E028780028EC
:107DF00005D06169002910D0684606700CE06878EB
:107E000000280CD0A16800226868FEF7A9FE0028AF
:107E100003D0A169002900D088472E70F8BD6168A1
:107E2000F1E70000D0200020B026002070B5094BFB
:107E300004469E7A082000250E4207D00648844258
:107E400002D01889A04202D10020156070BD052023
:107E500070BD000098260020FFFF00000C21484361
:107E6000064910B5012240188272911E0181FF213E
:107E7000C1720721FEF7B9F910BD00009826002055
:107E8000F8B5184D69466878FEF74AFD00281DD1FF
:107E90002F4600241437012615E06968E0004018D9
:107EA000037831463A6899400A4210D04268002A65
:107EB0000DD04178012901D1002100E00121FFF717
:107EC000BBFD641CE4B228788442E6D3F8BD7A682E
:107ED0000A42F6D041680029F3D041780129EDD05B
:107EE000EAE70000FC200020FEB50E46044681783B
:107EF0006A46234801F0B8FA002827D160780C219F
:107F0000204F4843C019807A800620D4022E1ED00C
:107F1000012E1ED01C4DA0781C2148431949002376
:107F2000F43941181C226846A847002813D0022EB5
:107F30000CD020780C21484312490C314018807A2B
:107F4000124980000A58214668469047FEBD104DF0
:107F5000E1E7104DDFE7022EF8D060780C214843AE
:107F6000C019817ADF22114081726078182148435C
:107F700004491C233039411818226846A847D8E71D
:107F8000B820002098260020ED9C0100ECA2010002
:107F9000D99801007197010070B50546114A124841
:107FA00000241C2363431B189B7EFF2B04D0641CFE
:107FB000072CF6D3104670BD0A78022A09D01C227D
:107FC00062431018FD22827607221030FEF7E6F891
:107FD00004E01C2161430818FE2181762C700022E8
:107FE000E8E7000043800000A4250020F7B5052540
:107FF0000F4F06460024002E0AD01C206043C019F3
:10800000072231461030FEF702F9002807D00AE0B7
:108010001C206043C019018B0298814203D1019852
:108020000025046002E0641C072CE4D32846FEBD52
:10803000A425002070B505460C46100003D0002290
:108040001146FEF707FC2078122805D0142801D02D
:10805000212804D1284600E0002000F061F800202B
:1080600070BD00001FB501F067FA002803D00022A0
:108070001146FEF7EFFB03A90120FFF73DFB0028A7
:1080800003D000221146FEF7E5FB03A800F03CFBFD
:10809000002803D000221146FEF7DCFB01A80621D0
:1080A0000230FEF7A2F81E206946C880087A012235
:1080B0001043E1210840DF210C3008406946087276
:1080C0000720487210208872064800900A710648FE
:1080D00000F022FC002803D000221146FEF7BAFB74
:1080E0001FBD0000358001000320002010B5097875
:1080F000002902D8FFF79AFA10BD03220121FFF7E9
:108100003DF80028F8D000221146FEF7A3FB10BD71
:10811000704700000149486070470000F0200020CF
:1081200010B50021064C0028217007D001462046DA
:1081300004220830FEF732F80120207010BD000044
:10814000F020002000B587B06946134800F08EFA91
:10815000002803D000221146FEF77CFB0499072279
:108160000E481031FEF71AF80C48142224380399EF
:10817000FEF714F80948102210380499FEF70EF89B
:108180000648243800DF002803D000221146FEF7FD
:1081900061FB07B000BD0000F8200020EC270020A4
:1081A00030B58FB005461C216846FEF71EF86946BB
:1081B00008780821084310221043694608700024FB
:1081C00001940394049405940694A87908A98870EE
:1081D000144869460884601C00070794000F0C7758
:1081E00010304877887FF9210840F721801C08402B
:1081F00010430121084369468877142109A8FDF737
:10820000F4FF08A8099007A80A9069468C851720F2
:10821000CC8508860D942B46A888103309AAA2DFC6
:108220000FB030BD3115000030B58FB005461C21B0
:108230006846FDF7DAFF6946087804210843694675
:108240000870002401940394049405940694A8797A
:1082500008A98870144869460884601C00070794C0
:10826000000F0C77103048778A7FF9200240F72002
:10827000921C0240EF200240012002438A77142121
:1082800009A8FDF7B2FF08A8099007A80A90694657
:108290008C851420CC8508860D942B46A88808333D
:1082A00009AAA2DF0FB030BD32150000F0B58FB0C3
:1082B0000F4605461C216846FDF797FF6846017882
:1082C0000226314301700024019403940494059420
:1082D0000694A97908A88170174968460184601C32
:1082E0000107090F68461031079401770020014605
:1082F00068464177817FF9200140F720891C0140C1
:10830000EF2001400120014368468177142109A82C
:10831000FDF76BFF08A8099007A80A9068468685B4
:10832000C48506860D972B46A888203309AA69467E
:10833000A2DF0FB0F0BD000034150000F0B5054617
:1083400087B0FF24C3480594007800286BD0C24F43
:108350003868002867D001A800F0C8F9002803D0C9
:1083600000221146FEF776FA002006460690281DE8
:108370000390342168460182FF218171002101713F
:108380000091B54C28880C3C10280ED0A8886A466D
:108390000221FFF74BFD002807D100980C21414333
:1083A0000919CA7A69468A7148712888142876D0D2
:1083B0002DDC102839D0112873D0132833D1694609
:1083C00008723A1DA88800217FDF00282BD1009871
:1083D0000C21414309198A7A04231A438A72C97A03
:1083E000FF2913D016216A461172182148439A4971
:1083F000243940181421001DFDF7F7FE00980C21C8
:1084000048430019817A2022114381720FE1172815
:108410007ED0924918287CD0522804D1B87A8000A6
:10842000095801A8884707B0F0BD8D4F6A46012161
:108430003846FFF7FBFC0028F5D100990C20484393
:1084400002220019827211236A4613725171A9889F
:1084500001810722A91DFDF7A1FE687BC10707D096
:1084600041087C480830405CFF2808D0059006E0B1
:108470003A4605A9A81DFFF7B9FD0028C6D1009905
:108480000C22514309190598C8728A7A08231A43A5
:108490008A726946887101A8FFF7A4F8C7E024E052
:1084A000FFE700980C2148430119887AFD2210400B
:1084B0008872010706D540060DD5002101A8FFF7F7
:1084C00013FD08E068468079FF2804D000F05EFFC5
:1084D000FF206946887100990C2251431020091928
:1084E0008872122069460872A1E000980C21484366
:1084F0000019C07AFF281FD1EA8905A90020FFF7DB
:1085000075FD002811D100990C225143091901E091
:108510001FE079E00598C8728A7A08231A438A72A4
:108520006946887101A8FFF75DF800980C2148435F
:108530000019C07AFF2807D00098182148434649FF
:108540003C394018001D0690A8880022069981DF5A
:1085500069E700980C21414309198A7AFB231A40E4
:108560008A7214216A461172A979002901D00E4637
:108570005DE018214843384914223C394018E97A13
:108580008170A97A417029460C31001DFDF706FE65
:1085900000980C2148430119887A420647D50822E1
:1085A00010438872CA7AFF2A04D0202210438872AE
:1085B000002125E005A8FFF7EFFC002801D00646C2
:1085C00035E069460598887100990C2251430919D4
:1085D000C8721C22234F5043A989C0190183E97A2C
:1085E00049070CD5294610222031FDF7D7FD059803
:1085F0001C214843C019817E490849008176012128
:1086000001A8FFF771FC12E000980C2250430019FA
:10861000827A40231A43827215206A461072B87A11
:108620008000095801A88847002800D00E4E02A9F2
:10863000324601A8FEF71AF96846007A122887D157
:1086400000980C2141430919897A012980D0FFF74C
:1086500005FCE8E6A8200020A42600200CA30100C9
:10866000FFFF0000A42500204180000030B51B4A18
:108670001B4B1278002A2CD09A1D002805D0002907
:1086800003D00278002A24D101E0104630BD154CF9
:1086900000222468002C1CD08378072B1BD21C24BA
:1086A0006343114C1B199B7EFF2B14D04378182574
:1086B0006B432546C4355B191B1DCB6080784A612E
:1086C0001C234A6058438A6000190A600861002030
:1086D00030BD184630BD0248083030BDA82000200B
:1086E00008800000A4260020A4250020002806D031
:1086F000FF21017041708170C170002070470148F6
:10870000704700000E800000F0B585B0040035D041
:108710000025284928460D608D72FFF79FFB2548EC
:1087200018212438FDF761FD0026FF27304600F0B0
:108730002DFE21488755761C072EF7D35021684619
:1087400081800721C1801D481B490090083168467F
:1087500000F090FF00280FD1174E0120083E307026
:10876000207800280CD069468888C988484381B29F
:108770003046103000F0A2FE05B0F0BD1048FBE717
:10878000104F00240C48A1B202AA083000F06CFE81
:10879000002809D11C206043C01900231C2202A913
:1087A00000F016FF002801D03570E5E7641C072CA7
:1087B000E8D3E1E7A4260020B0200020C98701000B
:1087C0000E800000A4250020FFB550488BB0006843
:1087D000149F1E46002869D0502F67D803A8FFF7C2
:1087E00085FF002803D000221146FEF733F800254C
:1087F0006846057305702C4604970596A1B208AA31
:10880000434800F031FE002806D1082208A90B9841
:10881000FDF7FDFC002817D0641C072CEED368463A
:10882000847BFF2C42D00C98042810D039481C219E
:10883000301AFDF79DFC0127072824D204A80190D7
:108840000D98002811D017E068468473E7E7502F91
:1088500009D040206946087068460178032001432A
:108860006846017047E02020F4E738462849A040D8
:1088700010394968084219D0204601F035FC202003
:10888000694608702EE0214818213C38301AFDF75F
:108890006FFC00280CD01D4C1821243C301BFDF728
:1088A00067FC002810D04020694608700FB0F0BD6A
:1088B00004A801902020694608701C2044431548F4
:1088C0004D73201805900DE0302168460170457306
:1088D000C7730E480C38807A800703D420461821CD
:1088E000FDF783FC0C986946032808780BD0022119
:1088F00008436946087004A80190694603A80D9AC8
:10890000FDF7B4FFD2E73843F4E70000A4260020C7
:10891000B8200020A425002070B5064611480D4659
:10892000007800280ED01049002E0ED0002D0CD05B
:108930002868002809D00D4C2168002907D00A4872
:108940000A3870BD0848801F70BD084670BD2060A1
:108950000622A91D201DFDF721FC2879A072002008
:10896000307070BDA82000200E800000A4260020DA
:1089700010B50E4900238A78CC78A24212D0521C3E
:10898000D2B28A70022A00D18B708A78074B92008B
:108990001C339A580260486910180002000A4861A6
:1089A000012010BD0360002010BD00002421002024
:1089B000F7B5144C0025A76823691EE0242159430C
:1089C000C9194E68864202D9301A486017E0801BE8
:1089D000751900264E600E750E699C460B6AB646E8
:1089E000002E0AD0019E76193602360A8E6076462F
:1089F000CE6016680E6261461160591CDED123619B
:108A0000FEBD0000242100200EB511206946087229
:108A10000A2212A102A87CDF002803D000221146FE
:108A2000FDF718FF104878DF002803D00022114618
:108A3000FDF710FF0021FF20913000916A4601915F
:108A40001080430053809180D08068467ADF0028F0
:108A500003D000221146FDF7FDFE0EBD4E6F72647D
:108A600069635F48524D00004103000000207047D9
:108A70000020704700207047F8B540780D4C18234F
:108A8000434326460C270021E558183678438019C1
:108A90000A46002D07D0867A770604D5B60602D49A
:108AA0001919AAB2091D0089A9DF002800D00248BF
:108AB000F8BD0000802600204180000070B50D4602
:108AC000014668781822084C50430019342300F0FE
:108AD0007FFD002806D16978182251436258521C44
:108AE00000D1625070BD000080260020F0B587B034
:108AF0000D46074614206946888268780C21484351
:108B00001F4E05AA801900896946AADF002833D1C3
:108B1000687818214843741A001969468A8A001D2A
:108B2000FDF775FB0028687806D0182148432158C6
:108B300000290DD0134E0CE00C2141438919897A8C
:108B4000890719D4182148430019FDF74EFB13E09B
:108B50000D4E69468A8A22506878182148430019C8
:108B60006946001DFDF71AFB687818214843011972
:108B7000342318223846B047002007B0F0BD00006B
:108B800098260020D99801007197010010B5FFF7D1
:108B900073FF10BD10B5FFF791FF10BD10B5FFF7C3
:108BA000A5FF10BD70B5094D04460E462869FEF7B5
:108BB00019F8002809D1284614300660446034436F
:108BC0002246A9682869FDF7CBFF70BDFC20002074
:108BD00010B513491348FEF765FC124C81B2243CD2
:108BE000A068401CA0600E486038FEF7B3FB002868
:108BF0000BD0082809D00C49884206D00B4988427E
:108C000003D000221146FDF725FE0321A068FDF7E1
:108C1000AFFA002901D0012000E00020207010BD33
:108C200054250020242000200430000001340000DE
:108C3000F0B5002406460D46601C010795B0090FEB
:108C400008A810310C940174297B4174817CF927A8
:108C50003940891C81741C2105A8FDF7C6FA6846B5
:108C6000017D10200143684601750CA806940A9006
:108C70000894099401220B9408A882761749684643
:108C800001870D94697B08A80175A97B4175817DD9
:108C9000F7203940891C0140EF200140114308A80A
:108CA000817514216846FDF7A0FA0EA800900DA862
:108CB00001900FAA0021304600F012F801466846E4
:108CC00001811421448181810FA804903346F088EA
:108CD00008336A4605A9A2DF15B0F0BD372A0000A7
:108CE000F7B542790025002A00D004252222135C22
:108CF0000222002B00D01543CBB2FF2907D9012255
:108D00001543029A090A53709170032602E00299F2
:108D100002264B7004464034A189002901D010215D
:108D20000D43002716E0B11C142909D9A189C91BDC
:108D30004A007900091824302431FDF72FFA0CE09D
:108D4000029B7A0012189B19928C1A70120A5A70A0
:108D5000CEB27F1CA189B942E5DCA089C01BA081ED
:108D6000029805703046FEBDF8B51E4C20780028EC
:108D700037D02069002807D00026E068002805D0F9
:108D80000025002E04D013E00126F6E70125F8E7C0
:108D9000684651DF052806D0002806D0002211467B
:108DA000FDF758FD04E0012602E02169009888479C
:108DB000002D12D1608869460880A06861DF05280F
:108DC00006D0002806D000221146FDF743FD04E03E
:108DD000012502E0E168A0688847002ED8D0002D68
:108DE000CFD0F8BD48210020418805480288914233
:108DF00004D34088814201D8012070470020704789
:108E0000C82000201048018CC9B2012917D1818CDB
:108E1000090714D1018D09060A0F03D1828D1206AC
:108E2000120F0ED0090F012903D1828D1206120FE5
:108E300007D0032903D1808D0006000F01D0002048
:108E40007047012070470000C00F00F0800701D07C
:108E5000002070470120704710B50448017AC90707
:108E600002D00078FEF7F0FC10BD00003420002096
:108E7000F8B5234801690091457833E02048E900BE
:108E8000C0680E1834782AE0182060437168641CAA
:108E90000818B178E4B2A14200D100240178022977
:108EA00002D003291BD113E0154A4068242192689F
:108EB00041438F18397D002911D001F04DF8002071
:108EC00038750CE024277843C0180275006A03E067
:108ED0000B4900228B680869471CF3D10861707840
:108EE000A042D1D128466D1EEDB20028C6D104485B
:108EF00001690098814201D00120F8BD0020F8BD31
:108F000024210020F8B50446384800270169009163
:108F100046785CE03548F100C2688D1851E0601C6D
:108F200007D0324A24209268604321468018046AA0
:108F300024E02878182141436A68401CC0B25218C6
:108F40002870A978884200D12F70284B51682420BE
:108F50009B684843C0181378012B34D1037D002B44
:108F600031D193688360D368C36013690361526928
:108F7000C2611E4A5279002A00D087601B4B82686A
:108F80005B6996469C46D31A1A02194B120A9A42FA
:108F900002D2C368D21808E0724663469A1A1202D7
:108FA000C368120A934202D99A1A426000E04760ED
:108FB00087600122C7600275921E0262084600F0B7
:108FC00099FF601CABD1287869788842A7D13046D8
:108FD000761EF6B200289DD10448016900988142AE
:108FE00001D00120F8BD0020F8BD000024210020A0
:108FF000FFFF7F0088B0FEF77FFA01F025F82649D1
:109000000120FDF75BFC002803D000221146FDF78C
:1090100021FC002221490320FEF7C6FB002803D0D3
:1090200000221146FDF716FCFFF71CF8FFF7ECFCD9
:10903000FDF760FB00F092FD00F024FD1C21684666
:10904000FDF7D3F80521C90301910F210904002080
:1090500002910090032269460A730F4940318A89C0
:109060006946CA8108740E4805900E480690684605
:10907000FDF788FF002803D000221146FDF7EAFB28
:10908000FDF7DCFDFDF76CFB40DF0028FCD0002283
:109090001146FDF7DFFBF7E7B4240020CD0C0000FC
:1090A00005920100BD7D010070B5054600790E46B0
:1090B000801C1446C0B21178821C8A181F2A01D95C
:1090C0000C2070BD0A46491C2170401CB054207809
:1090D000FF22411C2170325420788119288800F029
:1090E000FDFF21784018C0B22070AA88002A09D05C
:1090F000A968002908D08019FDF750F8207829794F
:1091000040182070002070BD072070BDF8B514789D
:109110000746A01C15460E461F2803D87878801CE9
:109120001F2801D90C20F8BD1D20001B80B2694604
:10913000864608803019801C7DDF0028F3D13878FE
:10914000022805D168460088704501D8092107E04A
:1091500078780821002801D0704501D96846008838
:10916000421C3255641CE2B2B1542978801C0818A4
:1091700028700020F8BD00207047002070470020B4
:109180007047000010B50446008810281FD0112831
:109190002AD019281AD1A079002817D1FEF7F6FA9B
:1091A000002803D000221146FDF754FB0320FEF7F0
:1091B000BBFA002803D000221146FDF74BFB34DF39
:1091C000002803D000221146FDF744FB10BD072004
:1091D000FEF7DCFA002803D000221146FDF73AFB27
:1091E0000749A088888010BD0020FEF7CFFA00282C
:1091F00003D000221146FDF72DFBFDF7B1FA10BD9B
:109200000020002010B50078002809D105483B2136
:10921000808876DF002803D000221146FDF71AFB74
:1092200010BD000000200020F0B589B004460227E0
:10923000684607700D468783A08A08AB07AA0021FD
:10924000A5DF0026002804D0E16A00291AD088474B
:1092500018E06846008CC007C00F13D068468680AF
:1092600020886946A8DF002812D1A97E28461B3035
:1092700001220B00FDF726F909430E1C2225272A9F
:10928000412C4300FF20FE30694688802088A8DFFB
:1092900009B0F0BD6B461E740CE006221DE0694665
:1092A0000A750690A26A04A9204690470020EFE7BD
:1092B0006B461A742B8B022BF1D2EEE768460774CB
:1092C000F0E7032000E00420694612E00520FBE7F8
:1092D000298B032905D2032208212046FDF74EFFE2
:1092E000D6E741780278080210436946888202D0A6
:1092F00006200874D6E70720FBE70920E4E70322ED
:10930000EBE7000010B51D4A1D490300FDF7DAF830
:1093100005040B3120271200487801281FD00228AD
:1093200008D1032005E04878002804D0032801D1A3
:109330000220487010BD134B04201860124B01200E
:109340001860D36892689342F3D0FDF7D7F810BD48
:109350004878012806D0022804D00328F7D1FDF769
:1093600005F910BDD06891688842EED1FDF7ECF8A0
:1093700010BD48780128E8D010BD0000DC26002090
:10938000D8200020002500400020004070B5054690
:109390001C200B4968434418204611300621FCF775
:1093A00024FF20461021FCF720FFFF21217400201C
:1093B000A176C0432083284600F096FE70BD0000D1
:1093C000A4250020F0B50C4A002153681422504314
:1093D00001240A4D03273F041E5822468A401642A4
:1093E00006D08A0052191668BE43166016681660C9
:1093F000491C2029F0D3F0BD18210020000700509F
:1094000070B50D00044604D1002211461046FDF748
:1094100021FA002C04D1002211461046FDF71AFA59
:109420002878207069886170090AA170A988E170A4
:10943000090A2171E8886071000AA07170BD0000FE
:1094400007490978002906D0002806D0054949783F
:10945000016000207047082070470E207047000010
:10946000E4200020EC26002030B5124B1B78002BA6
:1094700007D0002807D0002A05D00468002C12D19C
:1094800003E0082030BD0E2030BD0B4B1D68002DC1
:1094900009D045681889414369185D894543586872
:1094A0002818884201D8072030BD14600020516080
:1094B00030BD0000E4200020B8270020F8B50546A4
:1094C0001B480F460078002805D0002D05D02868DD
:1094D000002820D103E00820F8BD0E20F8BD154C6F
:1094E00000262068002816D06089218948436168D9
:1094F0004118686881420ED9FFF7A8FC00280CD0FB
:1095000029686868090109194A680989801AFCF7FD
:109510002FFE002903D00720F8BD1020F8BD3B46E0
:109520000022294604200096FEF78CFBF8BD0000BF
:10953000E4200020B8270020F8B50026214C22485E
:10954000A680667006704670867035462846FEF71F
:1095500069FB6D1C0A2DF9D31C4F668078693D04A8
:10956000401C05D0286981B27869FCF701FE00E053
:1095700068692969801E89B24843A0601248A680A4
:10958000CC3006600681868146810820607078694B
:10959000401C05D0286981B27869FCF7E9FD00E03C
:1095A00068692969401E89B24843296989B2FCF774
:1095B000DFFD20DF002803D1034A012191702170D3
:1095C000F8BD0000E4200020EC2600200010001070
:1095D000FFB5264881B000781F4616460D46002884
:1095E00008D0002D09D00198002806D0286800284E
:1095F00018D104E0082005B0F0BD0E20FBE71C4C9C
:10960000206800280ED0618920896268414389184A
:109610006A68914206D9002E04D0B04202D3F119F3
:10962000814201D90720E6E70198FFF70FFC0028E7
:109630001AD03846FFF70AFC002815D06868FFF7F3
:1096400005FC002810D068683246C1190198FCF763
:10965000A5FD009628680022000124580321284611
:10966000019BA0470020C6E71020C4E7E4200020AB
:10967000B8270020F8B504463A480F46007800287D
:109680001DD0002C1DD0002F1BD02068002818D022
:1096900001252D07A688286980B2864230D8102E71
:1096A0002ED3E088009000282AD02F484169491C19
:1096B00009D02969406989B2FCF75AFD04E0082005
:1096C000F8BD0E20F8BD68692969401E89B248437B
:1096D000244B00999D6871434B19984210D3012087
:1096E0000007006980B2814208DD0120000700699F
:1096F000314680B2FCF73CFD002901D1B00701D012
:109700000720F8BD17484288012A1AD0174824C7F5
:1097100011010E18756023684350A0883081E088DD
:109720007081A088E18800234843012109075B1C60
:109730000C699BB2A4B2844205D20C69A4B2001B8E
:1097400002E00420F8BD00200C69A4B265190C6980
:10975000A4B28442EBD90348521C8560B381428095
:109760000020F8BDE420002000100010B8270020E1
:10977000F8B5044620481E46007815460F460028D6
:1097800007D0002F07D0002C05D02068002817D163
:1097900003E00820F8BD0E20F8BD18480168002934
:1097A0000ED04289018940684A431018626890428D
:1097B00006D9002D04D0A94202D3A819884201D9A4
:1097C0000720F8BD3846FFF741FB002811D030468E
:1097D000FFF73CFB00280CD06068FFF737FB002840
:1097E00007D02B463A46214602200096FEF72AFA79
:1097F000F8BD1020F8BD0000E4200020B8270020AC
:10980000F8B5334B9978012914D1002531499D7061
:109810004A78082A05D002280FD003280AD10D2043
:1098200006E0022807D00D70FEF7ECF9002801D001
:10983000FDF700F9F8BD4D70F6E7254814240378CC
:109840002449634318188B885B1C9CB28C80037975
:10985000001D022B05D14688A102B14201D3012788
:1098600000E00027052B01D1072A03D00021042B9B
:1098700002D003E00121FAE7072A03D00026042BD7
:1098800002D007E00126FAE74088A302834201D311
:10989000002A1AD00020314301433943C4D00D4E71
:1098A00028467570FDF7C6F8094C2078FEF7BAF91E
:1098B000B5806078401E60702078401CC0B2207077
:1098C0000A28B1D30A382070AEE70120E3E7000090
:1098D000EC260020E4200020F8B5044620481E466F
:1098E000007815460F46002807D0002F07D0002C1F
:1098F00005D02068002817D103E00820F8BD0E200D
:10990000F8BD1848016800290ED0428901894068D5
:109910004A4310186268904206D9002D04D0A9422B
:1099200002D3A819884201D90720F8BD3846FFF7AD
:109930008DFA002811D03046FFF788FA00280CD0A5
:109940006068FFF783FA002807D02B463A46214685
:1099500005200096FEF776F9F8BD1020F8BD00004E
:10996000E4200020B827002010B511481149808854
:10997000884207D0132176DF05E000221146FCF76C
:1099800069FF02E074DF0028F7D10020FDF7FEFE3A
:10999000002803D000221146FCF75CFFFDF764FBB2
:1099A000002803D000221146FCF754FF10BD000030
:1099B00000200020FFFF000010B5074800780028B5
:1099C00009D0054805492C30FDF76CFD81B20348EC
:1099D0007038FDF741FD10BD0020002064250020F7
:1099E00070B501240B49600408600B494010886081
:1099F000094940398860094D6C602F20FCF78CFBC9
:109A0000AC60074D00242F206C61FCF785FB2C71A6
:109A100070BD000080E100E04013014000100140F3
:109A200024210020F0B500220123032636041F461E
:109A30009740394212D0C5683D4203D101246404E5
:109A40003D4301E03446BD43C560064D97007D1996
:109A50002F68B7432F602F6827432F60521C202A9E
:109A6000E5D3F0BD0007005010B50448012281780D
:109A7000514081700248FDF706FD10BD0020002016
:109A8000F424002070B51448012451216425846019
:109A900022C0047110491148FDF7F8FC0E488C21D2
:109AA00010300160FF212D3141600A2181600026C4
:109AB0000673014609480830FDF7E8FC0648FF2117
:109AC00020300560F531846041600673014603482B
:109AD0001030FDF7DBFC70BD442500201C20002069
:109AE000F7B582B002981446006B0F46002833D0B9
:109AF000029800252030009028E00298016B0C208D
:109B000068430E18217830794A1C2270C01C7854A2
:109B100020781622411C21703A542078C1193088CF
:109B200000F0DCFA21784018C0B22070B288002A18
:109B300009D0B16800290FD0C019FCF72FFB20789D
:109B40003179401820706D1C0098EDB2007DA8425C
:109B5000D3D8002005B0F0BD0720FBE730B59FB09B
:109B6000032118A80175142110A8FCF73EFB00245E
:109B7000012510A8109405711DA81290601C010702
:109B8000090F10A81031017344738473601C01071E
:109B9000090F10A81031C1730020014610A80174EC
:109BA00001463148FDF702FC002803D0002211468F
:109BB000FCF750FE142115A8FCF717FB0120014605
:109BC00018A8103141700120014618A81031817089
:109BD0000020014618A8C1700120014618A81031C4
:109BE000017110A815940576642118A817940170C6
:109BF0001D4815A91838FDF77BF9002803D000226D
:109C00001146FCF727FE40216846FCF7EEFA17A143
:109C10006846FDF762FC0120014608A81031017773
:109C20000020014608A841776846FDF7D7FA0028CA
:109C300003D000221146FCF70DFE11481B901A9428
:109C40001C9410A8058508481AA98030FDF714FA5D
:109C5000002803D000221146FCF7FCFD0948FEF75E
:109C600059FA1FB030BD0000F42400204E6F72641A
:109C7000696353656D69636F6E647563746F7200B9
:109C8000ED8001006999010010B508461146C046F3
:109C9000C04610BD002803D00249C86000207047AC
:109CA0000E2070474821002070B5002901D08C0794
:109CB00001D0072070BD064C0125A16062800549D6
:109CC000636010DF0028F5D12570162026DF70BDF7
:109CD00048210020899C0100002803D00249086126
:109CE000002070470E207047482100200020704758
:109CF000FFB583B00F46594D069A059906466B7815
:109D0000114303200191002B03D100290FD0012121
:109D10006970059A697801249200240700920B006B
:109D2000FCF7D0FB07320721345474833200022140
:109D3000EEE74B484169491C05D02169406989B269
:109D4000FCF716FA00E060692169401E89B24843B9
:109D5000216909048A0C216989B2794321DF00282D
:109D600012D102210FE0384620DF00280CD10599DE
:109D7000002901D0032106E0069900291FD131787E
:109D8000042968D020E0697007B0F0BD344841690B
:109D9000491C05D02169406989B2FCF7E9F900E066
:109DA00060692169401E89B241432069059A80B2E9
:109DB000784321DF0028E7D10699002901D004214A
:109DC000E1E7317804292ED00521DCE724484169F8
:109DD000491C05D02169406989B2FCF7C9F900E046
:109DE00060692169401E89B2484371884218009811
:109DF0001018226992B27A435218009953180146FA
:109E00001846069A21DF0028DBD0BDE7206971885B
:109E100080B2784380188A08316921DF0028B3D1E5
:109E20000199002917D00621ADE70D484169491C69
:109E300005D02169406989B2FCF79AF900E06069B0
:109E40002169401E89B24843216989B2FCF790F923
:109E500020DF002898D1072195E70000E4200020AA
:109E60000010001010B50446FFF7CAFC022C01D008
:109E7000032C07D104484178002903D00021417008
:109E8000FCF76EFC10BD00000020002070B50C0037
:109E9000054604D1002211461046FCF7DBFC002DDC
:109EA00004D1002211461046FCF7D4FC207828701B
:109EB0002088FF2109020840000A68702068090212
:109EC0000840000CA8702068000EE8702079287106
:109ED000207A68712089000AA871A068000CE871D6
:109EE00070BD0000012002490005086070470000B5
:109EF00000E200E0F0B5174F2421BC6841430D1982
:109F000039694A1C09D024224A4316196B687268C1
:109F1000934204D8D21A726029623861F0BD0A46B1
:109F200002E00A46396A9B1B4E1C0BD024264E4386
:109F300037197E689E42F4D324264E43361977683B
:109F4000FF1A77606B60296224214A431119086265
:109F5000F0BD00002421002070B5194C2269A568CD
:109F60001346114606E0814207D00A462426714373
:109F70004919096A4E1CF6D170BD002EFCD08A42E8
:109F80000CD1242043435819006A2061401C05D19C
:109F90000C4B0120986000236361607124204143D1
:109FA0004819242341685A43006A52191062421C1E
:109FB000E2D024225043401942685118416070BDDC
:109FC0002421002000100140F8B51D4C2569681CB3
:109FD00035D01C48002640686169401A07023F0AD4
:109FE00019E024204543A0682A185068B84214D8C4
:109FF000A3693F1A8619156A002B09D0D1699069A7
:10A000009847002807D000221146FCF723FC02E005
:10A010009169D0698847681CE3D1A178E0788142D2
:10A0200006D1401CC0B2E070022801D10020E070CF
:10A0300003490006800D1C310E50FFF753FFF8BD99
:10A04000242100200015014008B500201D4B0522E9
:10A0500008210090FCF72AFD002803D000221146B9
:10A06000FCF7F8FB184A01211848FCF7F9FC002816
:10A0700003D000221146FCF7EDFB1448144A0121DD
:10A08000001DFCF7EDFC002803D000221146FCF770
:10A09000E1FB0E480F4A01210830FCF7E1FC0028E3
:10A0A00003D000221146FCF7D5FB08480A4A0121DB
:10A0B0000C30FCF7D5FC002803D000221146FCF739
:10A0C000C9FB08BD5C210020E16D01000C200020CF
:10A0D000D18B0100B9990100699A01000870000A4A
:10A0E0004870022070470000012181400248426808
:10A0F0008A43426070470000A820002038B5154907
:10A10000154A488890420FD04A78144C521CD2B25B
:10A110004A70237B934208D3083175DF002803D0AF
:10A12000A169002900D0884738BD00254D70217CE9
:10A13000002907D03B2176DF002803D0A169002940
:10A1400000D0884761690029EED0684605708847CD
:10A1500038BD0000C0200020FFFF0000B026002016
:10A1600012494868C005C00D19D0103840B2002807
:10A1700007DA0207120F083A920892005118C969CB
:10A1800004E081080A4A8900891809688007C00E1E
:10A19000C1400806800F012803D0032803D0022005
:10A1A00070470020704701207047000000ED00E07C
:10A1B00000E400E042788378521C934200D10022F0
:10A1C0000378934201D1002070470A6041684078CB
:10A1D0001822504308187047F8B51546069C1E46CD
:10A1E00007460222009400F00AF8002806D1334600
:10A1F000102229463846009400F001F8F8BDFFB55A
:10A2000083B0074600200C9C8646267805463AE037
:10A210007868A90041180A88684682804988C18008
:10A220000022694601A865DF002810D16846017840
:10A230000598814226D17046002801D0002200E016
:10A2400002222078891841181F2902D90C2007B052
:10A25000F0BD7146002908D1401CC0B2411C069BCC
:10A26000049A21701A5401208646217806980A180B
:10A27000694601A865DF0028E9D169462078097898
:10A28000401820706D1C3888A842C1DC7046002838
:10A2900004D020780699801B401E88550020D6E700
:10A2A0000D1801000F1801000A180100110000002C
:10A2B0001200000013000000140000001100030051
:10A2C000B976010012000300B97601001300030003
:10A2D000B976010014000300B976010023D1BCEA6D
:10A2E0005F782315DEEF1212000000007F9101005D
:10A2F000ED8A0100758A01009D8B01007B910100B0
:10A30000BD8A0100718A0100958B010077910100DF
:10A31000798A01006D8A01008D8B01003CA3010048
:10A32000002000205C0100004C62010050A30100ED
:10A330005C2100209C0E0000EE6401004201034CF1
:10A34000FFFF038624F4021C010466118101000052
:04000005000160C1D5
:00000001FF
