:020000040001F9
:1060000058360020A1610100BB610100BD610100A3
:106010000000000000000000000000000000000080
:10602000000000000000000000000000BF6101004F
:106030000000000000000000C1610100C361010018
:10604000C5610100C5610100C5610100C5610100B4
:10605000C561010000000000C5610100C5610100CB
:10606000C5610100C5610100C5610100C561010094
:10607000C5610100C5610100C5610100C561010084
:10608000C561010083860100C5610100C561010091
:10609000A5860100C56101001B8B0100C5610100DF
:1060A000C5610100C56101000000000000000000A2
:1060B00000000000000000000000000000000000E0
:1060C00000F002F800F031F80CA030C808382418AD
:1060D0002D18A246671EAB4654465D46AC4201D120
:1060E00000F023F87E460F3E0FCCB6460126334221
:1060F00000D0FB1AA246AB4633431847CC510000F0
:10610000DC510000103A02D378C878C1FAD852079F
:1061100001D330C830C101D504680C6070471FB589
:10612000C046C0461FBD10B510BD05F04AF8114667
:10613000FFF7F5FF00F099FD05F062F803B4FFF7F3
:10614000F2FF03BC05F066F8401E00BF00BF00BFB1
:1061500000BF00BF00BF00BF00BF00BF00BF00BF47
:1061600000BFF1D17047000070B505460C461646D9
:1061700002E00FCC0FC5103E102EFAD2082E02D32B
:1061800003CC03C5083E042E07D301CC01C5361F3E
:1061900003E021782970641C6D1C761EF9D270BD55
:1061A00003210C4802680A4302600B4802680A4354
:1061B00002600A4880470A480047FEE7FEE7FEE71C
:1061C000FEE7FEE7FEE7000006480749074A084BDE
:1061D000704700002405004054050040996201000A
:1061E000C16001005826002058360020582E00209B
:1061F000582E002032483349086070473248008CDE
:10620000C0B2012812D13048808C0007000F00284E
:106210000CD12D48806AF0210840402806D12A4838
:10622000C06A0840002801D1012070470020FCE727
:106230002548008CC0B201282CD12348808C00074F
:10624000000F002826D12048806AF021084000284D
:1062500006D11D48C06A0840002801D101207047BE
:106260001948806AF0210840102806D11648C06AF3
:106270000840002801D10120F1E71348806AF0218D
:106280000840302806D11048C06A0840002801D1D3
:106290000120E4E70020E2E710B5FFF7C9FF00287E
:1062A00005D00A480A494860C8130A498861FFF7BF
:1062B000A5FF002802D001200749886010BD00001A
:1062C0000024F40000200020C00F00F0DFFF07C012
:1062D00000050040006C00400006004030B513048B
:1062E0008C0023430524240707252D02641985000B
:1062F000635130BD0F2000F0DDFC00BFBFF34F8FB6
:10630000FB48FC49C860BFF34F8F00BF00BFFEE7EA
:1063100004460D462A462146F748FFF7EBFF70B5C5
:10632000F649F74801F09DFDC5B22946F54801F050
:106330002EF80446002C0DD0082C0BD0F2488442D5
:1063400008D0F248844205D000BFF1A2C621204601
:10635000FFF7D0FF70BD10B50446FFF7E0FF10BD9A
:1063600010B504460120207000206070A070EB4939
:10637000EB4801F076FDA080EA49EB4801F071FDA1
:10638000A071EA49EA4801F06CFD2081A088032150
:106390000902884201D90120A07010BD7FB50546D1
:1063A0006846FFF7DDFF6946E24801F0CBF9044695
:1063B000002C0ED0082C0CD0D348844209D0D348EE
:1063C000844206D000BFD2A2FF210E312046FFF743
:1063D00091FF7FBD10B5082000F063FC092000F09C
:1063E00060FC0F2000F05DFC10BDF8B500BF002080
:1063F000D14B05220321009002F058F9054600BF59
:106400002E46002E06D000BFC1A2FF212831304603
:10641000FFF770FF00BF00BFC84A0121C84802F063
:10642000C2F9044600BF2546002D06D000BFB8A221
:10643000FF212E312846FFF75DFF00BFC14A012131
:10644000C14802F0B0F9044600BF2546002D06D031
:1064500000BFAFA2FF2134312846FFF74BFF00BF3A
:10646000F8BD3EB500BF6846007801090901491C26
:10647000009168460078F02188431030009000BFFA
:106480000A22B2A168467CDF044600BF2546002DE3
:1064900006D000BF9EA2FF2148312846FFF72AFF01
:1064A00000BF1120800178DF044600BF2546002D83
:1064B00006D000BF96A2FF214B312846FFF71AFFF6
:1064C00000BF002001900290FF2191316846818039
:1064D0004900C18000210181FF219131418101A842
:1064E0007ADF044600BF2546002D06D000BF88A2F3
:1064F000FF2155312846FFF7FDFE00BF3EBD30B5F8
:1065000093B006210491944A07CA01AB07C338210E
:1065100005A804F0A4FD02216846017501218175DA
:10652000018304A907910321818501A90C91002110
:1065300005A801F0FDFB044600BF2546002D06D04E
:1065400000BF73A2FF2176312846FFF7D3FE00BFBC
:106550001421824804F083FD0020804908704860BF
:10656000087228200882B420488213B030BD30B5AC
:1065700099B000201690179018901690052010A939
:10658000488400BF10A8007F01090901491C10A818
:106590000177007FF0218843103010A9087700BFF1
:1065A00000BF16A840790009000116A9487116A875
:1065B0004079F021884316A9487100BF00BF16A892
:1065C000807900090001887116A88079F02188433C
:1065D00016A9887100BF00BF10A8C07F010909017A
:1065E000491C10A8C177C07FF0218843103010A942
:1065F000C87700BF00BF16A8007A0009000116A9DD
:10660000087216A8007AF021884316A9087200BF04
:10661000484801F069F8044600BF2546002D06D021
:1066200000BF3BA2FF219F312846FFF763FE00BF5A
:10663000142111A804F013FD00BF10A8407C01092B
:106640000901491C10A84174407CF0218843103096
:1066500010A9487400BF00BF11A8807B0009000189
:10666000401C11A9887311A8807BF0218843103049
:1066700011A9887300BF00BF11A8C07B00090001E9
:10668000C87311A8C07BF021884311A9C87300BF4B
:1066900000BF10A8007D01090901491C10A801755F
:1066A000007DF0218843103010A9087500BF00203C
:1066B0001190012110A8017200201390642110A8EC
:1066C000017411A90F4800F041FE044600BF2546A1
:1066D000002D06D000BF0EA2FF21B1312846FFF7E2
:1066E00009FE00BF402101A804F0B9FC38E0000019
:1066F0000400FA0500ED00E0EFBEADDE4021002011
:10670000082000200C21002004300000013400008B
:106710002E2E5C6D61696E2E6300000050210020FA
:10672000102000206021002018200020702100206F
:106730002020002024210020802100205763010018
:10674000282000209D6301002C2000204E6F7264E1
:1067500069635F525343000040B20100F8200020FB
:10676000FEA101A801F04AFB00BF10A800780109B2
:106770000901491C10A801700078F02188431030ED
:1067800010A9087000BF00BF10A8407800090001E0
:10679000487010A84078F021884310A9487000BFC5
:1067A00001A800F0ABFB044600BF2546002D06D033
:1067B00000BFEF4AFF21BC312846FFF79BFD00BF19
:1067C00019B030BD10B55120EA4908606420486016
:1067D000012088600873E84801F036FB8020E74913
:1067E00008600D20C0014860FF20813088600020D3
:1067F0000873E34801F028FB2820E2490860A02044
:1068000048601420886000200873DF4801F01CFBFA
:106810001420DE4908607D20486005208860002043
:106820000873DB4801F010FB10BD70B50022012198
:106830000904D848006801F0FDFF044600BF264661
:10684000002E06D000BFCA4AFF21EC313046FFF7C8
:1068500051FD00BF0125ED0300222946CE48006806
:1068600001F0E8FF044600BF2646002E06D000BF18
:10687000BF4AFF21F1313046FFF73CFD00BF70BD3C
:1068800038B5684604F01DFB044600BF2546002DC0
:1068900006D000BFB64AFF21FF312846FFF72AFD88
:1068A00000BF0098002803D00120BC49087038BD03
:1068B000BB4873DF044600BF2546002D05D000BF4E
:1068C000AB4AB8492846FFF715FD00BF082000F085
:1068D000F1F900BFEBE770B505462878002810D124
:1068E0003B21B148008876DF044600BF2646002ED3
:1068F00006D000BF9E4AAB4917313046FFF7FAFC7D
:1069000000BF70BD044600BF994AA6492231204607
:10691000FFF7F0FC30B587B01C21684604F09FFB00
:10692000002000900520C00301900F200004029079
:106930000321684601739D4841896846C181002151
:1069400001749B4805909B480690684602F07DF9CB
:10695000044600BF2546002D06D000BF844A092109
:1069600089012846FFF7C6FC00BF07B030BD70B5EF
:1069700004462088102804D011280CD0192829D1C9
:1069800013E0092000F096F9082000F098F9A0889B
:10699000854908801FE0092000F091F90020C043DC
:1069A00081490880FFF76CFF15E0A079002810D11D
:1069B000082000F084F934DF054600BF2E46002E83
:1069C00006D000BF6A4A77495B313046FFF792FC38
:1069D00000BF00E000BF00BF70BD10B50446022C30
:1069E00002D0032C0BD100E000BF6C4800780028D7
:1069F00004D0002069490870FFF742FF00E000BFA3
:106A000000BF10BD10B50446204603F00CF9214626
:106A1000664800F032FD2146674800F09AFB2046A8
:106A200002F0E7F92046FFF7A2FF10BD10B50446BB
:106A3000204603F0B2FE2046FFF7CFFF10BDF8B5A9
:106A400000BF002350225D49082002F01EF80546D1
:106A500000BF2E46002E06D000BF454AAB2189005C
:106A60003046FFF747FC00BF00BF002000900090B9
:106A7000684660DF044600BF2546002D06D000BFF3
:106A80003B4A4849AC312846FFF734FC00BF4C482C
:106A900002F031F8044600BF2546002D06D000BFA5
:106AA000334A4049B0312846FFF724FC00BF45482F
:106AB00002F02AF8044600BF2546002D06D000BF8C
:106AC0002B4A3849B4312846FFF714FC00BFF8BD03
:106AD00010B5032200210846FFF700FC0322002125
:106AE0000120FFF7FBFB10BDF8B506460F46144624
:106AF00000BF2546002D06D000BF1D4A2949D031D0
:106B00002846FFF7F7FB00BF0020F8BD7FB503F074
:106B1000E7FE044600BF2546002D06D000BF144AFC
:106B20002049DF312846FFF7E5FB00BF0120264959
:106B30000969C1400140002900D100E00020039014
:106B400003A802F00DFC044600BF2546002D3FD0EF
:106B500000BF074ABB218900284637E04E6F7264A8
:106B6000696353656D69636F6E647563746F7200FA
:106B70001067010040210020082000205021002043
:106B8000102000206021002018200020702100200B
:106B900020200020282000202C2000203120002050
:106BA000F8200020070200000420002024210020FB
:106BB000D7680100056901000C210020C0230020D6
:106BC000056A01002D6A010000050050FFF792FBE5
:106BD00000BF062101A8023004F03FFA1E216846DA
:106BE000C180007A40084000401C6946087268462F
:106BF000007A02218843694608726846007A1C219F
:106C000088430C30694608726846007A2021884320
:106C100069460872072168464172102181722A482C
:106C200000900121684601716946284802F007FC7E
:106C3000044600BF2546002D05D000BF244A254943
:106C40002846FFF757FB00BF7FBD70B540DF044605
:106C500000BF2546002D06D000BF1D4AC121890076
:106C60002846FFF747FB00BF70BDFFF7B3FBFFF7F8
:106C70002FFFFFF7E4FEFFF749FFFFF7B6FBFFF733
:106C8000F0FBFFF73CFCFFF772FCFFF79BFDFFF703
:106C900041FEFFF7CAFDFFF7F3FD00BFFFF7D5FF89
:106CA000FCE703210522120707231B02D2188300E9
:106CB000D150704701218140074A916070470121FE
:106CC0008140054AD1607047E96A01003020002008
:106CD00010670100FB0200000005005070B504467B
:106CE0000D4600BF002D01D0012000E00020064627
:106CF000002E05D100BFE6A23321FFF7FBFA00BF4B
:106D000000BF00BF002C01D0012000E0002006469B
:106D1000002E05D100BFDEA23421FFF7EBFA00BF41
:106D200000BF2878207029882879FF231B0219408A
:106D300000200206080A1043607028791B022968A7
:106D4000194000200204080C1043A07029791B028E
:106D50002868184000210902000E0843E0702879D5
:106D60002071287A6071190CA8680840000AA07187
:106D70000902A8680840000CE07170BDF8B505462E
:106D80000E46002400BF002E01D0012000E00020AC
:106D90000746002F05D100BFBDA24B21FFF7AAFA7D
:106DA00000BF00BF00BF002D01D0012000E0002087
:106DB0000746002F05D100BFB5A24C21FFF79AFA74
:106DC00000BF00BF32782046611CCCB22A5429197A
:106DD000708800F054F90019C4B22919B08800F085
:106DE0004EF90019C4B22919F08800F048F90019C9
:106DF000C4B200BF072C01D1012000E000200746EB
:106E0000002F05D100BFA2A25421FFF773FA00BFE3
:106E100000BFF8BDF0B58FB007460D4614461E46BC
:106E200000BF002D01D0012000E00020009000985C
:106E3000002805D100BF96A26D21FFF75BFA00BFC5
:106E400000BF00BF002C01DD012000E00020009009
:106E50000098002805D100BF8DA26E21FFF74AFAE5
:106E600000BF00BF1C2107A804F0F9F86946087F9D
:106E700002218843801C69460877002008900A9008
:106E80000B900C900D9000BF012108A881766846F8
:106E9000078700BF00200190317868460171717842
:106EA0004171807906218843811C6846817180790F
:106EB0000821884301466846817180791021884302
:106EC00001466846817180794108490068468171B0
:106ED000142102A804F0C3F80EA8029001A80390A0
:106EE00068460482002141828482069502AA07A98D
:106EF00074480088149BA2DF0FB0F0BD7FB5044634
:106F000000BF0121684681736F49818100BF6D4ACE
:106F100003A90120A0DF0546002D02D0284604B0B9
:106F200070BD208800280DDD684800902288234627
:106F30003C3367486168FFF76DFF0546002D01D0BF
:106F40002846ECE7208900280EDD6248009022895F
:106F500023463C335E48401FE168FFF75BFF054670
:106F6000002D01D02846DAE7208A00280EDD5A4895
:106F70000090228A23463C335548001F6169FFF781
:106F800049FF0546002D01D02846C8E7208B002880
:106F90000EDD52480090228B23463C334C48801E25
:106FA000E169FFF737FF0546002D01D02846B6E717
:106FB000208C00280EDD4A480090228C23463C336A
:106FC0004348C01E616AFFF725FF0546002D01D02A
:106FD0002846A4E7208D00280EDD42480090228D2F
:106FE00023463C333A48401EE16AFFF713FF05464B
:106FF000002D01D0284692E7206B002813D001A86D
:10700000216BFFF76BFE384823463C33082201A969
:1070100000902F48801FFFF7FDFE0546002D01D090
:1070200028467CE700BF606B00280FD02F480090F7
:10703000606B027923463C3301682548401CFFF70A
:10704000E9FE0546002D01D0284668E7A06B002820
:1070500013D001A8A16BFFF791FE254823463C33CE
:10706000072201A900901A482730FFF7D3FE0546F2
:10707000002D01D0284652E700BF00204FE702460E
:107080000A70FF2000021040001248700220704772
:107090002E2E5C2E2E5C2E2E5C2E2E5C2E2E5C5305
:1070A0006F757263655C626C655C626C655F73656D
:1070B0007276696365735C626C655F6469732E6385
:1070C00000000000322000200A18000034200020B8
:1070D000292A00003C200020442000204C200020D1
:1070E000542000205C200020642000206C20002020
:1070F000742000208A88428270470022D243428254
:107100007047F8B504460E46207D002820D0B51DF6
:107110002988608981421AD1288B022817D12068DA
:10712000002814D000BF00BFA97EEA7E12021143DE
:107130000846C107C90F002902D00020009001E0D5
:1071400001200090694620462268904700BF00BF9A
:10715000F8BD70B505460C462088102804D01128CB
:1071600007D050280FD109E021462846FFF7C2FF7B
:107170000AE021462846FFF7C0FF05E021462846E1
:10718000FFF7BFFF00E000BF00BF70BDF0B591B0DA
:1071900004460D46207D002819D00020099000BF2C
:1071A00008A8007901090901491C08A801710079A2
:1071B000F0218843103008A9087100BF697B08A836
:1071C0004171807906218843801C08A988711C219F
:1071D0000AA803F044FF08A8007A02218843811C12
:1071E00008A80172007A10218843217D002901D06E
:1071F000012100E00021090110221140084308A9E3
:10720000087200200B900D900E90207D002801D078
:1072100009A800E000200F900020109000BF01217D
:10722000684681737749818100BF00200290A97B65
:1072300068460172E97B4172807A06218843811C8D
:1072400068468172807A08218843014668468172C7
:10725000807A10218843014668468172807A41080D
:10726000490068468172297B0191142104A803F02A
:10727000F6FE03A8049002A8059001216846018348
:10728000002141830121818301A80890A088A31DCA
:1072900004AA0AA9A2DF0646002E02D0304611B089
:1072A000F0BDA86800284DD000BF01216846817359
:1072B0005549818100BF00200290287C69460872F0
:1072C00000BF6846407A0109090168464172407A68
:1072D000F02188436946487200BF6846807A0621DB
:1072E0008843811C68468172807A08218843014660
:1072F00068468172807A102188430146684681720F
:10730000807A4108490068468172A96800F058FDFA
:107310000746142104A803F0A2FE03A8049002A8C3
:1073200005906846078300214183018B8183089083
:10733000E08822460E3204A9A3DF0646002E03D0C1
:107340003046ACE70020E0810020A8E7F8B504460D
:107350000D46286820600020C0436082287920758F
:10736000FF20207400BF01216846817027490180F9
:1073700000BF221D69460120A0DF0646002E01D075
:107380003046F8BD29462046FFF700FFF9E733B540
:1073900085B004460025207C6946097E88422FD0AE
:1073A000012104916846007E2074E08806AB04AA9F
:1073B0000021A4DF0546002D02D0284607B030BDCD
:1073C000608A1349884219D0207D002816D00020F9
:1073D000009001900290039001210491E188684699
:1073E0000180012181700021818004A8029006A8FB
:1073F0000390608A6946A6DF054600E0082500BFC5
:107400002846DBE7192A0000082900000F180000B1
:10741000FFFF00008A88C28270470022D243C282E6
:10742000704738B505460C46208B022817D12868CE
:10743000002814D000BF00BFA17EE27E12021143DB
:107440000846C107C90F002902D00020009001E0C2
:1074500001200090694628462A68904700BF38BD41
:1074600070B504460D46AE1D31886089814203D156
:1074700031462046FFF7D5FF70BD70B505460C4676
:107480002088102804D0112807D050280FD109E0F7
:1074900021462846FFF7BEFF0AE021462846FFF7AF
:1074A000BCFF05E021462846FFF7DAFF00E000BFF9
:1074B00000BF70BDF7B50C461646002701257119AF
:1074C000A08800F06EF94019C5B2A2792846691C5F
:1074D000CDB232540098007EC007C00F00280AD0F9
:1074E0002078002807D0012007437119208900F077
:1074F00058F94019C5B20098008B022108400028B5
:1075000016D06078002813D0022007437119E06874
:107510000870FF2212020240120A4A70FF2212046F
:107520000240120C8A70020ECA7004225019C5B2B1
:107530000098008B04210840002804D0A07800287F
:1075400001D00420074337702846FEBD30B599B0FE
:1075500005460C460020119000BF10A800790109D3
:107560000901491C10A801710079F02188431030ED
:1075700010A9087100BF217910A8417180790621F6
:107580008843811C10A881711C2112A803F067FD9B
:1075900010A8007A10218843103010A9087200202A
:1075A00013901590169011A817900020189000BF06
:1075B000012108A881737F496846818500BF0020AA
:1075C0000A90617908A80172A1794172807A062136
:1075D0008843811C08A88172807A0821884301466B
:1075E00008A88172807A10218843014608A8817218
:1075F000807A41084900491C08A8817214210CA80E
:1076000003F02DFD0BA80C900AA80D9001AA06A965
:107610002846FFF74FFF0146684601870021418752
:107620001421818701A81090A888AB1D0CAA12A96B
:10763000A2DF19B030BD70B590B005460C461C21D4
:1076400009A803F00CFD08A9087902218843801CD1
:1076500008A9087100200A900C900D900E900F90D0
:1076600000BF0121684681735249491C818100BFD6
:1076700000200290E17968460172217A4172807A95
:1076800006218843811C68468172807A08218843DC
:10769000014668468172807A102188430146684617
:1076A0008172807A4108490068468172142104A8D9
:1076B00003F0D5FC6689684606713112417103A852
:1076C000049002A8059002216846018300214183AD
:1076D0000221818301A80890A8882B460E3304AAB2
:1076E00009A9A2DF10B070BDF8B504460E46306897
:1076F00020600020C043E0827089208300BF012108
:10770000684681702C49018000BF221D6946012016
:10771000A0DF0546002D01D02846F8BD31462046A1
:10772000FFF714FF0546002D01D02846F5E7314646
:107730002046FFF780FF0546002D01D02846ECE7E4
:107740000020EAE7F0B58BB004460F46E08A1B49FB
:10775000884222D006AA39462046FFF7ABFE0646ED
:10776000059600200190029003900490E1886846FD
:107770008180012181710021018105A8039006A863
:107780000490E08A01A9A6DF0546002D04D16846D1
:10779000808AB04200D00C2500E0082528460BB0B6
:1077A000F0BD02460A70FF2000021040001248702F
:1077B00002207047532A000014180000FFFF000049
:1077C000F7B584B004460F4606980678B01C1F280B
:1077D00003DC6078801C1F2802DD0C2007B0F0BDA0
:1077E0001F20801B801E85B20295B11C781802A94B
:1077F0007DDF03900398002801D00398EEE72078FE
:10780000022808D168460089A84204DC09200190BA
:10781000684605890BE0082001906078002804D0B4
:107820006078A84201DC657801E068460589681C3B
:10783000C2B23046711CCEB23A543046721CD6B237
:107840000199395406980178A81C0818C1B2069805
:1078500001700020C2E7F8B505460C462078001DEF
:107860001F2801DD0C20F8BD684679DF0646002E92
:1078700001D03046F7E703212278501C2070A9542C
:1078800019212278501C2070A9542078411968468B
:10789000008800F08AFA2178401820700020E2E782
:1078A000F8B505460F4616461C466868002801D103
:1078B0000720F8BD2078801C298840181F2801DD8A
:1078C0000C20F6E72878401CC1B22278501C2070AA
:1078D000B1542178481C207077542A88237898194D
:1078E000696803F05DFB207829784018207000203B
:1078F000DFE730B503461078C01C1F2801DD0C20DF
:1079000030BD02241578681C10704C550A24157877
:10791000681C10704C551578681C10704B55002071
:10792000EEE7FFB587B006461D46109C0020069086
:1079300020780590002747E0B900706841180A8850
:107940006846028149884181002203A902A865DFB7
:1079500004900498002802D004980BB0F0BD68464B
:10796000017B099881422ED10698002801D0002081
:1079700000E00220019020786946097B41180198B7
:1079800008181F2801DD0C20E7E70698002809D118
:107990002078401C20702278511C08982170A8542F
:1079A000012006902078421903A902A865DF0490FF
:1079B0000498002801D00498CFE720786946097B15
:1079C0004018207000BF7F1C3088B842B4DC069895
:1079D000002806D021780598401C081AC1B20598E5
:1079E00029540020B9E7FFB581B0074615460A9E25
:1079F000009602223846049B0299FFF792FF044644
:107A0000002C02D0204605B0F0BD00961022294679
:107A10003846049BFFF785FF0446002C01D0204622
:107A2000F1E70020EFE701460888062808DB088810
:107A30001922D201904205DD0888E04A904201D027
:107A4000072070474888062808DB48881922D20199
:107A5000904205DD4888D94A904201D00720F0E7DE
:107A60000888D64A904208D04888904205D00888B5
:107A70004A88904201DD0720E3E70020E1E7F8B5FE
:107A800006460D4614462078801D1F2801D90C207B
:107A9000F8BD3046FFF7C7FF0746002F01D0384634
:107AA000F6E705212278501C2070A9541221227873
:107AB000501C2070A95422785119308800F075F9B3
:107AC00021784018207022785119708800F06DF9E3
:107AD0002178401820700020DAE7F8B505460E46F8
:107AE00014462879801CC7B22078801CC0191F2832
:107AF00001DD0C20F8BD781CC1B22278501C20702A
:107B0000B154FF212278501C2070B1542278911971
:107B1000288800F04AF9217840182070A8880028A9
:107B20000EDDA868002801D10720E3E7AA882378A2
:107B30009819A96803F034FA207829794018207040
:107B40000020D7E7FEB507460E461446386B0028DE
:107B500001D10720FEBD0020019032E0396B0C22DC
:107B6000019850430D182879801CC0B200900098ED
:107B7000401CC1B22278501C2070B15416212278CA
:107B8000501C2070B15422789119288800F00DF90A
:107B9000217840182070A88800280EDDA8680028E9
:107BA00001D10720D6E7AA8823789819A96803F09D
:107BB000F7F920782979401820700198401CC0B24C
:107BC00001903420C15D01988142C7DC0020C1E7EB
:107BD000F8B504460F461646002500203070207880
:107BE000002809D0324639462046FFF7E9FD054610
:107BF000002D01D02846F8BDA078002808D03146D5
:107C00003846FFF728FE0546002D01D02846F2E74A
:107C1000A08800280ADD33463A460121201DFFF7DF
:107C20003FFE0546002D01D02846E4E7E068002825
:107C30000BD00020E168085632463946FFF759FE5E
:107C40000546002D01D02846D5E7208A00280CDD06
:107C50003B4606220221204610300096FFF7C3FE65
:107C60000546002D01D02846C5E7208B00280CDDF5
:107C70003B4607220321204618300096FFF7B3FE4B
:107C80000546002D01D02846B5E7208C00280CDDE4
:107C90003B4615221421204620300096FFF7A3FE14
:107CA0000546002D01D02846A5E7A06A002809D086
:107CB00032463946A06AFFF7E2FE0546002D01D0A4
:107CC000284698E7E06A002809D032463946E06A3B
:107CD000FFF703FF0546002D01D028468BE734202F
:107CE000005D002809DD324639462046FFF72AFFAD
:107CF0000546002D01D028467DE728467BE7014652
:107D00008888002808D08868002805D0886800780E
:107D100004221040002801D1072070470020FCE712
:107D200001468888002801DD072070470020FCE715
:107D3000F3B593B00D4600211291119113980028CC
:107D400014D01398FFF7DBFF0446002C02D0204626
:107D500015B0F0BD12AA09A91398FFF739FF044620
:107D6000002C01D02046F3E709AE00E00026002DEC
:107D700013D02846FFF7D4FF0446002C01D020463C
:107D8000E6E711AA01A92846FFF722FF0446002CC6
:107D900001D02046DCE701AF00E0002710A80379FE
:107DA0003A46017A304672DFD2E702460A70FF2077
:107DB000000210400012487002207047FFFF0000D0
:107DC000F8B505460E46002432782146641C6A54F4
:107DD00072782146641C6A5400BF022C01D1012034
:107DE00000E000200746002F05D100BF08A2202197
:107DF000FEF780FA00BF00BF2046F8BD70B504460C
:107E00000D46284603F0AAF82080656070BD00008A
:107E10002E2E5C2E2E5C2E2E5C2E2E5C2E2E5C5377
:107E20006F757263655C626C655C626C655F7365DF
:107E30007276696365735C626C655F7372765F63AB
:107E40006F6D6D6F6E2E63000A7B002A04D04A6846
:107E500002600022027103E00A68026001220271DE
:107E600070470246107900280FD048681368C01A7E
:107E70008B68984204D910688B68C018106013E0B2
:107E800048681060002010710EE010680B68C01A7E
:107E90008B68984204D910688B68C01A106003E0A0
:107EA00008681060012010711068704710B5002834
:107EB00019DAFB4A03071B0F083B9B089B00D258AB
:107EC0008307DC0EFF23A3409A438B071B0E840716
:107ED000E40EA3401A43F24B0407240F083CA40805
:107EE000A4001A5118E0EF4A03231B02D21883089A
:107EF0009B00D2588307DC0EFF23A3409A438B07D5
:107F00001B0E8407E40EA3401A43E64B032424020D
:107F10001B198408A4001A5110BD10B50446E2488C
:107F2000846003211120FFF7C1FF10BD10B50120AF
:107F30000004DE494860DD4940394860112000F006
:107F4000F5FC112000F0E4FC0120D94908602F2045
:107F5000FEF7FAF80120D749087010BD10B51120BE
:107F600001218140CF4A8032116000BF012000040E
:107F7000CE498860CD49403988600120CC494860AD
:107F80002F20FEF7E1F80120C94988600020CA4986
:107F900008602F20FEF7D8F80020C649087010BDF1
:107FA000F0B5024624205043C44B1B68C118C44896
:107FB0000068401C002802D1C148026059E0C04856
:107FC0004B68006824246043BC4C24680019406856
:107FD000834217D8BA48006824235843B74B1B681C
:107FE000C01840684B68C31AB54800682424604331
:107FF000B24C246800194360B14800680862B04878
:10800000026036E04B68AE4D2C6828680DE02425F0
:108010004543AA4E3668AD196D685B1B044624259E
:108020004543A64E3668AD19286A451C002D07D079
:1080300024254543A14E3668AD196D689D42E6D3AF
:10804000451C002D0CD0242545439C4E3668AD19A7
:108050006D68EE1A24254543984F3F68ED196E6010
:108060004B60086224256543944E3668AD192A6238
:1080700000BFF0BDF8B50646914805682C4609E0FA
:10808000B44200D109E02546242060438B490968A9
:108090004018046A601C0028F2D100BF601C002850
:1080A00000D1F8BDA54210D185480068242148437D
:1080B000824909684018006A8149086008460068DA
:1080C000401C002801D1FFF749FF242060437B4971
:1080D00009684018476824206043784909684018B7
:1080E000016A24206843754A1268801801622420BE
:1080F0006843724909684018046A601C00280CD063
:10810000242060436D49096840184068C119242043
:1081100060436A4A12688018416000BFC1E710B529
:10812000112000F0FCFB10BD10B5142000F0F7FB8F
:1081300010BD70B5044663480068002813D0614A3A
:10814000E169A06912689047054600BF2E46002EDF
:1081500007D000BF5CA2FF2164313046FEF7CAF8A9
:1081600000BF00BF02E0A169E069884770BDF8B5B3
:1081700053480068401C00283AD0002700F008FC53
:1081800004464D480168204600F005FC06464C4870
:10819000056811E02420684348490968441860686C
:1081A000B04200D90BE06068361A6068C719256ACA
:1081B0002046FFF7BEFF00BF681C0028EAD100BFC1
:1081C0004D4800784D490978884209D14B480078DC
:1081D000401CC0B249490870022801D10020087033
:1081E00046480078800046490F50FFF79DFF00BFCA
:1081F000F8BD014640480078404A127890421DD0B0
:108200003D480078401C3C4A107010460078022817
:1082100001D100201070384800788000384A10588A
:108220000860254A086812688018234A10601046C2
:1082300000680002000A10600120704700200860FA
:1082400000BFFAE7FEB51E48006801902D4800788F
:10825000009076E00098C0002B4909684418257802
:108260006BE01820684361680F18681CC5B2A078DD
:10827000A84200D100253878022802D0032859D11D
:1082800044E02421786848430C4909684618307D49
:10829000002804D07868FFF7EDFE002030754AE032
:1082A0001CED00E000E100E000150140401301403A
:1082B00000100140A42000209020002080200020F9
:1082C0008C200020A02000202E2E5C2E2E5C2E2E36
:1082D0005C2E2E5C2E2E5C536F757263655C617034
:1082E000705F636F6D6D6F6E5C6170705F74696DF0
:1082F00065722E63000000009C2000209D2000205D
:108300009420002084200020882000200CE0F849E0
:10831000096824225143F74A126888180021017520
:10832000F34A016A116000BFF1480068401C002850
:10833000EDD100E000BF00BF00BF6078A84290D13F
:1083400000BF0098411EC9B20091002882D1E848C0
:1083500001680198814201D00120FEBD0020FCE7A8
:10836000F0B50346002426E0E14E366824277E431C
:10837000E04F3F68F01946689E4203D94668F61AF6
:1083800046601DE046689B1B46683419002646601F
:108390000675D74E3568D64F066A3E600669002ED0
:1083A00008D00E193602360A86600669C66016685D
:1083B0000662156000BFCE480068401C0028D3D17B
:1083C00000BFF0BDFEB50746C94800680290CA4824
:1083D000007801906BE00198C000C8490968451811
:1083E0005DE0781C002807D03E4624207043C14938
:1083F00009684418276A23E02978182359436A68D2
:1084000050182978491C29702978AA78914201D1FD
:1084100000212970466824217143B64A12688C18DD
:108420000178012902D1217D002900D037E081683F
:10843000A160C168E160016921614169E16100BF3A
:10844000AF49A0680968401A0002000AAD49884295
:1084500008D2AB49A068096800F09DFAE1684018AD
:10846000606011E0A648A168006800F094FA0090EE
:10847000E1680098814204D9E1680098081A6060B8
:1084800001E00020606000BF0020A060E0600120EB
:108490002075801E20623046FFF782FD00BF781CE9
:1084A00000289ED12878697888429AD100BF019827
:1084B000411EC9B2019100288DD18D4801680298F2
:1084C000814201D00120FEBD0020FCE7FEB58848B6
:1084D0000068401C002834D08548006824214843A7
:1084E000844909684018456800F052FA01908448B0
:1084F00004682146019800F04EFAC61C82480078B4
:10850000002801D1FFF712FDAE4201D2284600E05B
:10851000304604192402240A20467C49086000BF22
:1085200000F036FA00900199009800F034FAC71C68
:108530002046019900F02FFA874201D9FFF7EFFD9D
:1085400001E0FFF70BFDFEBDFEB50020C04301902A
:108550006B480468664807686846FFF74AFE0546A8
:10856000FFF770FE0646002D05D001AA21460098AF
:10857000FFF7F6FE01260198FFF724FF002800D040
:108580000126002E02D03846FFF7A0FFFEBD417045
:10859000704770B502460B465078411C907888426F
:1085A00000D100211078884201D1002070BD1960EF
:1085B00050781826704355682C182046F6E7FFB50A
:1085C00081B005460E461746E9004C4A12688818E5
:1085D0006946FFF7DEFF0446002C02D1042005B0F7
:1085E000F0BD01202070666000F0D2F9A060E76065
:1085F000049820610A986061E900404A126888186E
:108600000099FFF7C4FFFFF78FFD0020E7E7F8B5FB
:1086100004460E46E100394A126888186946FFF799
:10862000B8FF0546002D01D10420F8BD02202870B6
:108630006E60E100314A126888180099FFF7A7FFC1
:10864000FFF772FD0020F0E738B50446E1002B4A41
:10865000126888186946FFF79CFF0546002D01D176
:10866000042038BD03202870001F6860E100234A01
:10867000126888180099FFF78AFFFFF755FD002060
:10868000EFE710B500202249086000212048416032
:108690008160C16000201E49403908604860FFF7D2
:1086A00066FD10BD10B5FFF74FFF10BDFFB581B0DF
:1086B0000E4617461C4620468107890F002901D126
:1086C000012100E00021002902D1072005B0F0BD02
:1086D000002C01D10720F9E7FFF740FC0D490A986B
:1086E00008600D48067003480460002523E0000080
:1086F0008C20002080200020842000208820002062
:1087000090200020FFFF7F00A420002040150140A2
:1087100040110140A02000207C20002000212420C6
:1087200068439F4A12681154242068439C4A126887
:10873000801801756D1CB542F0DB242070430419CC
:1087400003209849087098480460183400250CE00C
:10875000E900954A126888180021017041708770FD
:108760004460182179430C196D1C032DF0DB0020A7
:10877000C0438E49086000208D4908708D490870FB
:10878000142000F0D3F803211420FFF78FFB1420EE
:1087900000F0BEF80198FFF7C0FB00F0F9F8864939
:1087A0000860002092E770B503460C467C480068DC
:1087B000002801D1082070BD002A01D10720FAE766
:1087C000002B01D10720F6E700211CE024204843BC
:1087D000734D2D68285C002814D1012524204843BE
:1087E0006F4E36683554242048436D4D2D6840192E
:1087F0004470242048436A4D2D68401982611960F5
:108800000020D8E7491C6D4800788142DEDB042057
:10881000D1E710B500F092F8012802D0032804D166
:1088200001E0002403E0012401E0022400BF00BFB6
:10883000204610BDFEB504460D4616465848006851
:10884000002801D10820FEBD5C480078844201D296
:10885000052D01D20720F6E724206043504909681E
:10886000085C012801D00820EDE7242060434C4932
:10887000096840184078012801D1284600E000200E
:108880000746FFF7C6FF3B462A4621460096019061
:10889000FFF795FED7E770B5044641480068002809
:1088A00001D1082070BD45480078844201D30720DB
:1088B000F8E7242060433A490968085C012801D0A0
:1088C0000820EFE7FFF7A5FF05462146FFF79FFECB
:1088D000E8E710B532480068002801D1082010BD33
:1088E000FFF797FF0446FFF7AFFEF8E710B5044621
:1088F00000F04EF82060002010BD70B505460E4611
:1089000014463146284600F046F82060002070BD2D
:10891000C206D20E01219140294A11607047C20659
:10892000D20E01219140274A11607047C206D20E33
:1089300001219140234A80321160704710B52248CE
:108940004068C105C90D002920D00A46103A50B22E
:1089500000280DDA1C4B1C330407240F083CA40824
:10896000A4001B598407E40EE3401B069B0F0BE099
:10897000134B032424021B198408A4001B598407E9
:10898000E40EE3401B069B0FD8B210BD0420FCE7A9
:108990000E48406870470246501A0002000A7047AD
:1089A0008020002084200020882000208C200020AF
:1089B0009C2000209D200020902000207C20002072
:1089C00000E100E000E200E000ED00E00015014001
:1089D00070B506460C46154629462046FDF798FC1C
:1089E00070BDF8B55A480078002800D1F8BD594844
:1089F0000068002801D1012000E00020054656480B
:108A00000068002801D1012000E00020064600BFD8
:108A1000002D14D1684651DF0446052C01D10125F3
:108A20000CE0002C06D000BF4CA269212046FDF7C7
:108A300061FC03E0474900980968884700BF002EA1
:108A40001AD154480088009069465348006861DF95
:108A50000446052C01D101260DE0002C06D000BFF4
:108A60003EA280212046FDF745FC04E04A4800680C
:108A700039490968884700BF002D02D0002E00D078
:108A800000E0C5E700BF00BFB0E7FFB581B00C460E
:108A900016461F46002C02D1072005B0F0BD204627
:108AA0008107890F002901D1012100E0002100295F
:108AB00001D10720F1E7384804603648068037487E
:108AC00007603749019810DF0546002D01D0284680
:108AD000E3E701201E490870162026DFDDE710B508
:108AE00011DF0446002C01D0012000E000201849CD
:108AF0000870204610BD0146002901D10E207047A4
:108B0000154801600020FAE70146002901D10E2036
:108B10007047104801600020FAE770B51F480068F0
:108B2000002811D01D4800688047044600BF254634
:108B3000002D07D000BF09A2FF2133312846FDF7E1
:108B4000D9FB00BF00BF01E0FFF74BFF70BD000085
:108B5000B2200020B8200020B42000202E2E5C2E51
:108B60002E5C2E2E5C2E2E5C2E2E5C536F75726347
:108B7000655C73645F636F6D6D6F6E5C736F66745D
:108B80006465766963655F68616E646C65722E63A7
:108B900000000000B0200020AC200020A820002011
:108BA000D189010001464888B74A1288904206DB05
:108BB0004888B54A5288904201DC01207047002065
:108BC000FCE738B50546B1480088B14988423BD03A
:108BD000B0480078401CAF490870AF48007B097866
:108BE00088420FDBA849A948008875DF0446002C9D
:108BF00007D0A9488069002803D0A748816920468A
:108C0000884721E00020A3490870A348007C002881
:108C10000FD03B219D48008876DF0446002C07D00A
:108C20009D488069002803D09B4881692046884779
:108C300000BF99484069002806D00020009096485F
:108C400041696846884700BF38BD70B505461C229B
:108C500029469148FDF788FA002090490870286855
:108C600000280BD008228848296802F099F9864824
:108C70007ADF0446002C08D0204670BD82487BDF96
:108C80000446002C01D02046F7E70020C0437F496E
:108C9000088000207F490870814A00218148FFF741
:108CA00082FDEAE710B57F480068FFF7F4FD10BDCC
:108CB00038B57D48FFF776FF002829D1774800783E
:108CC00000280AD074484069002820D00020009075
:108CD000714841696846884719E06E480078002865
:108CE00002D16D48456801E06B488568002229463D
:108CF0006C480068FFF79EFD0446002C07D06648CC
:108D00008069002803D064488169204688470AE0CA
:108D100061484069002806D0012000905E48416902
:108D20006846884700BF00205C49087038BD10B510
:108D30000446A08855490880082221460E315A4829
:108D400002F02EF90020534908705348C0890028CA
:108D500001D1FFF7ADFF10BD70B505460020C0433F
:108D60004A49088000204B4908704E480068FFF7C8
:108D700092FD0446002C07D047488069002803D0A4
:108D8000454881692046884770BD70B50546AC1DD1
:108D900020884149C989884220D1208B02281DD1D1
:108DA00000BF00BFA17EE27E120211430846C10748
:108DB000C90F002902D0FFF77BFF0FE03948006898
:108DC000FFF769FD0646002E07D03348806900286A
:108DD00003D0314881693046884700BF70BD10B567
:108DE00004460822A11D304802F0DAF8FFF760FFC0
:108DF00010BD10B504462088102806D0112808D0D0
:108E000012280ED0502810D107E02046FFF78FFF20
:108E10000CE02046FFF7A0FF08E02046FFF7B5FF73
:108E200004E02046FFF7DBFF00E000BF00BF10BDFD
:108E300038B5044608222146134802F0B1F812481A
:108E40007ADF0546002D1CD11748FFF7ABFE00283E
:108E50000BD10120114908700B490C48008875DFBF
:108E6000054601200B4908700BE00B4840690028BB
:108E700006D001200090084841696846884700BF35
:108E80000025284638BD0000BC200020C620002058
:108E9000FFFF0000C420002010240020D420002068
:108EA000C38B0100D0200020C820002070B50346ED
:108EB0000C460820002115E00C254D43FE4EAD194F
:108EC000AD7A2540002D0CD0FC4DAB4205D00C25D1
:108ED0004D43AD192D899D4202D11160002003E060
:108EE0000520491C0029E7D000BF70BD10B504461D
:108EF00018216143F24A891808461130062102F010
:108F0000ACF818206043EE49401800210160416030
:108F10008160C160FF2118206043E94A8018017414
:108F2000182060438018C175204601F00EF910BD6D
:108F30007CB50546A9B26A46E24801F0E7FD044661
:108F4000002C09D14C21684601F05FFF0446002C3B
:108F500002D12846FFF7CAFF20467CBDF8B505467A
:108F60000E46052700240FE018216143D44A8918D2
:108F7000084610300722294601F0C2FF002802D11E
:108F80003460002702E0641C072CEDD300BF384694
:108F9000F8BD10B5044601210C206043C64A801874
:108FA0008172891E0C20604380180181FF210C20F2
:108FB00060438018C1720C2161438818072102F0B8
:108FC0004CF810BD10B50446002010BDF0B587B0B8
:108FD00007460C461420019061780C225143B64A92
:108FE0008918088901AA02A9AADF0646002E46D1DF
:108FF000617818225143B44A8918081D69468A8845
:1090000002A901F07DFF002812D160780C214843AD
:10901000A9494018807A0221084002282FD061789F
:1090200018225143A84A8818182102F018F826E09F
:10903000607818214843A4490858002801D0A34D5E
:1090400000E0A34D694689886078182250439E4A03
:1090500011506178182251439B4A8918081D6946AE
:109060008A8802A9FDF780F8607818225043964A52
:109070008118302318223846A847064600BF002032
:1090800007B0F0BD02460020704770B505460C469B
:109090006178182251438C4A8818302318222946B7
:1090A00001F042FE0646002E0DD16078182148439B
:1090B00085490858401C002805D1002160781822F5
:1090C0005043814A1150304670BD0246002070471F
:1090D000F8B50446002600276078182148437A49ED
:1090E000085800281FD060780C2148437249401866
:1090F000807A40210840402815D160780C214843EF
:109100006D494018807A2021084020280BD06078D3
:10911000182148436C494018061D607818214843BF
:109120006949085A87B261780C225143624A89180A
:1091300008893A463146A9DF0546002D00D0654D25
:109140002846F8BD0146002070470146002902D19B
:10915000604833387047FF20087048708870C870C6
:109160000020F7E7FFB58BB00F461D4600BF5A48F9
:109170000068002801D10FB0F0BD00BF14984C2842
:1091800000D9F8E70120029007A8FFF7DEFF0646A6
:1091900000BF0196019E002E06D000BF4F4A5049E5
:1091A0000198FDF7A7F800BF00BF002168460177CE
:1091B00008A801700695149805900020019017E00A
:1091C000019881B203AA3F4801F0A0FC0646002E98
:1091D0000BD1082203A90B9801F092FE002804D1BC
:1091E0000198C1B26846817705E00198401C019062
:1091F00001980728E4D300BF6846807FFF2875D018
:10920000042F0AD114984C2803D1202008A90870F3
:1092100082E0402008A908707EE02949681A1821D8
:1092200001F01FFF0446072C1DD205A809900D98D8
:10923000002810D16946887F01218140294A12689F
:109240001140002901D0012100E00021002902D1B4
:109250000020029060E06946887F00F076FF2020C1
:1092600008A9087058E02049681A182101F0F9FE91
:109270000446002C0DD105A80990202108A80170F2
:1092800068464477807F182148430D49401806906E
:1092900042E00D49681A182101F0E3FE0446002C53
:1092A00035D1302108A80170684644770121C17783
:1092B0000C20604300491AE004250020FFFF000055
:1092C0002C240020D8200020EC2400205FAC0100DA
:1092D00095AB0100418000001025002080B2010004
:1092E000BC040000E0200020D424002036E0401818
:1092F000807A0221084002280ED06946497F182250
:109300005143FB4A8818182101F0A9FE04E000200F
:109310000290402008A90870029801281ED1042F4D
:1093200006D108A908780321084308A908700EE0AF
:10933000032F06D108A908780121084308A908705D
:1093400005E008A908780221084308A9087005A8C3
:10935000099008A907A80D9A00F03AFF00BF0AE794
:109360007FB50646002E02D1E24804B070BD00244D
:109370000BE000BF00210C206043DF4A11500C209D
:1093800060438018817200BF641C002CF1D000245F
:1093900003E02046FFF7FDFD641C002CF9D01821E6
:1093A000D34801F05CFE002406E02046FFF79EFD56
:1093B000FF20D2490855641C072CF6D34C2168467F
:1093C00081810721C181CE480290CE4902A801F0D7
:1093D000E9FA0546002D30D10120CB4908703078DC
:1093E000002821D100241CE0A1B26A46C54801F042
:1093F0008DFB0546002D0FD118216143C34A881803
:1094000000231822694601F08FFC0546002D07D085
:109410000020BD49087006E00020BB49087002E04A
:10942000641C072CE0D308E06A469089D289504337
:1094300081B2B44801F0E9FC0546284695E770B5CD
:1094400005460C4600BFB0480078002802D1A94864
:10945000801F70BD00BF002D01D1A648F9E7002C88
:1094600001D1A448F5E72068002801D1A148F0E720
:10947000A148006800280FD19F4920680860062293
:10948000A11D9D48001D01F08BFD20799A4988722D
:1094900000202870002601E0964E0A3E3046D8E7AC
:1094A00070B5044600BF98480078002802D1914862
:1094B000801F70BD00BF002C01D18E48F9E700BFAE
:1094C0002078012806DA20780C2148438A49085878
:1094D000002802D18748801FEBE700BF00BF6078FB
:1094E000012807DA60780C21484389494018807ABE
:1094F000012802D17F48801CDBE700BF7D4DAD1FF6
:1095000060780C21484382494018807A0221084043
:10951000022809D161780C2251437D4A89180889B3
:109520007549091D7EDF05462846C2E7024600BF91
:1095300075480078002802D16E48801F704700BF30
:10954000002A01D16B48F9E7002901D16948F5E704
:1095500000BF1078012806DA10780C235843664BB8
:109560001858002802D16348801FE7E700BF00BFFA
:109570005078012807DA50780C235843644BC01800
:10958000807A012802D15B48801CD7E700BF507861
:109590000C2358435E4BC018807A042318400028DF
:1095A00002D0012008700EE050780C235843584B2D
:1095B000C018807A40231840002802D0022008708A
:1095C00001E0002008700020B8E7F0B5044600BFB5
:1095D0004D480078002802D14648801FF0BD00BFEA
:1095E000002C01D14348F9E7002901D14148F5E7B2
:1095F0000868002801D13F48F0E78868002801D1B9
:109600003C48EBE700BF2078012806DA20780C25DB
:109610006843394D2858002802D13648801FDDE7BD
:1096200000BF00230022002024E018254543374EC8
:10963000AD19ED7DED07ED0F002D08D1182545433F
:10964000AD1997008E68F5512C4EB054521C182558
:1096500045432E4EAD19ED7D02263540002D08D133
:1096600018254543294EAD1910359F000E68F55158
:109670005B1C401C072805D20D799D4202D90D7B49
:109680009542D2D80B710A730020A7E70246194809
:109690008230704770B5044600BF1B480078002830
:1096A00002D11448801F70BD00BF002C01D11148A9
:1096B000F9E700BF2078012806DA20780C2148431A
:1096C0000D490858002802D10A48801FEBE700BF67
:1096D00000BFA078072807DAA078182148430B4973
:1096E0004018C07DFF2815D10248801CDBE7000030
:1096F000EC2400200E80000010250020E520002032
:1097000065910100D8200020E42000202C240020B6
:109710000425002000BFA078FFF70AFC0546284674
:10972000C1E770B5044600BFFE480078002801D1AB
:10973000FD4870BD00BF002C02D1FB48801DF8E73A
:1097400000BF2078012806DA20780C214843F74929
:109750000858002801D1F448EBE700BF0026002597
:109760000BE018206843F2494018C07DFF2803D061
:109770002846FFF7DDFB06466D1C072DF1D330466A
:10978000D7E7FEB504460D4600BFE648007800283E
:1097900001D1E548FEBD00BF002C02D1E248801D8A
:1097A000F8E7002D02D1E048801DF3E700BF2078E4
:1097B000012806DA20780C214843DC4908580028A3
:1097C00001D1D948E6E700BF00BF6078012807DA79
:1097D00060780C214843D7494018807A012802D18B
:1097E000D1480830D6E700BF00BFA078072807DAC5
:1097F000A07818214843CE494018C07DFF2802D1E7
:10980000C9480830C6E700BFA868002812D06868B9
:1098100000280FD0686814280CD22878012809D1B4
:10982000637818277B43C44FDB19181D6A68A96841
:1098300001F0B6FBA1786A46C04801F067F9064618
:1098400028788000BE490A58214668469047064657
:1098500030469FE77CB504460D4600BFB14800780E
:10986000002801D1B0487CBD00BF002C02D1AE4819
:10987000801DF8E7002D02D1AB48801DF3E700BF43
:109880002078012806DA20780C214843A749085897
:10989000002801D1A448E6E700BF00BFA078072850
:1098A00007DAA07818214843A1494018C07DFF2855
:1098B00002D19D480830D6E700BF60780C214843AC
:1098C0009C494018807A02210840022802D096481C
:1098D0008930C8E7A868002812D1686814280FD218
:1098E000287801280CD16078182148439249401803
:1098F000001DA8606078182148438F4908586860A7
:10990000A1786A468D4801F001F906462878800062
:109910008C490A5821466846904706463046A2E7D9
:10992000014600BF7F480078002801D17E4870477B
:1099300000BF002902D17C48801DF8E700BF0878ED
:10994000012806DA08780C225043784A105800287B
:1099500001D17548EBE700BF00BF8878072807DA18
:10996000887818225043724A8018C07DFF2802D19F
:109970006D480830DBE700BF6B488830D7E7024608
:109980006948893070470246674889307047014608
:10999000654889307047024600BF62480078002859
:1099A00001D16148704700BF002902D15E48801D87
:1099B000F8E7002A02D15C48801DF3E700BF107869
:1099C000012806DA10780C235843584B1858002801
:1099D00001D15548E6E700BF107808700020E1E7A4
:1099E000FEB504460E46A1786A46544801F08EF84A
:1099F0000546002D49D160780C2148434D49401857
:109A0000807A20210840202801D0022E01D14E4F1B
:109A100004E0012E01D14D4F00E04D4FA0781822F7
:109A20005043434A8118002318226846B847054628
:109A3000002D1AD1022E18D060780C2148433D49E0
:109A40004018807A2021884361780C225143394A9A
:109A5000891888726078182250433E4A811818236A
:109A60001A466846B847054600BF022E0DD020783A
:109A70000C2148432D494018807A800030490A580B
:109A8000214668469047054600BFFEBD70B50446B6
:109A90000D4600BF23480078002801D1224870BD40
:109AA00000BF002C02D12048801DF8E7002D02D114
:109AB0001D48801DF3E700BF2078012806DA2078D2
:109AC0000C21484319490858002801D11648E6E7F7
:109AD00000BF00BFA078072807DAA0781821484304
:109AE00013494018C07DFF2802D10F480830D6E73F
:109AF00000BF6078FF2839D12878022836D0A178B5
:109B0000182251430A4A891808461030072229466C
:109B100001F046FAA078012181400F4A12681143F2
:109B20000D4A1BE0E42000200880000010250020E2
:109B30002C24002004250020EC240020D820002024
:109B40004CB201005CB201005FAC010095AB0100BA
:109B5000C58F0100D4240020E0200020116000BF48
:109B600002212046FFF73CFF002600E0FE4E304673
:109B700095E770B504460E4600BFFC480078002803
:109B800002D1F948401C70BD00BF002C02D1F6483C
:109B9000C01DF8E7002E02D1F348C01DF3E700BF57
:109BA0002078012806DA20780C214843F04908582B
:109BB000002802D1EC48401CE5E700BFEA4DAD1E8D
:109BC000A078FF2817D16078FF282AD060780C2170
:109BD0004843E8494018807A02210840022820D1F1
:109BE00060780C225043E34A81180722304601F086
:109BF000D7F9002515E0A07818214843DE49401820
:109C0000C07D0221084000280BD1A07818225043C3
:109C1000D94A8018014610310722304601F0C0F9B8
:109C200000252846AFE7F0B58BB004460026FF209C
:109C3000049000BFCD480078002801D10BB0F0BDE2
:109C400000BF00BFCA480068002800D1F6E700BF87
:109C500008A8FFF77AFA054600BF2F46002F06D066
:109C600000BFC64AC6493846FCF744FB00BF00BFE8
:109C70000020039009900025201D0690342168469D
:109C80008183FF2108A881700021017000200A90C3
:109C90002088102813D0A0880AAA0221FFF706F90D
:109CA0000546002D0BD10C210A984843B1494018B4
:109CB000C17A08A881700A98C1B208A841702088AA
:109CC00014287DD006DC10280BD0112879D0132859
:109CD00078D1DAE0172876D0182875D05228F7D135
:109CE0000DE20AAF3A460121A648FFF7DFF80290DD
:109CF0000298002807D102210C22386850439D4A5F
:109D00008018817201E00420029002980546002D1F
:109D100071D101261121684601750A98C1B208A8BF
:109D20004170A1880C220A985043924A8018018100
:109D300002210C220A9850438E4A801881720C220C
:109D40000A9951438B4A88180722A11D01F028F96E
:109D5000607B304000280AD0607B40088A49085C5C
:109D6000FF2809D0607B4008085C049004E004A947
:109D7000A01DFFF7F3F80546002D3CD10498C1B2B1
:109D80000C220A9850437B4A8018C1720C210A9811
:109D9000484311464018807A082108430C220A994A
:109DA0005143744A8918887208A9049888700498E5
:109DB00081B201AA754800F0A9FE0546002D04E015
:109DC0004EE019E0A4E1A1E078E113D118220A994C
:109DD00051436F4A881818231A4601A900F0A4FFBE
:109DE0006348807A80006B490A5808A901A8904707
:109DF000054600BF00BF8CE10C210A9848435D492D
:109E00004018807A022188430C220A995143594A0A
:109E1000891888720C210A98484311464018807AA4
:109E200008210840082804D1002108A8FFF7D8FD20
:109E30000AE008A88078FF2806D008A98878FFF7EC
:109E400055F8FF2008A9887010210C220A98504369
:109E5000484A80188172012612206946087558E127
:109E60000C210A98484343494018C07AFF2806D07D
:109E700018210A98484346494018001D0390A088BD
:109E80000022039981DF054643E1132069460875E6
:109E9000A088374A121D00217FDF0546002D02D021
:109EA0000995002631E00C210A98484331494018B1
:109EB000807A042108430C220A9951432D4A8918BB
:109EC000887201260C210A98484311464018C07A2E
:109ED000FF281AD000BF16206946087518220A9973
:109EE00051432D4A8918081D142101F0B8F80C219E
:109EF0000A9848431F494018807A202108430C22C1
:109F00000A9951431B4A8918887202E10C210A9868
:109F1000484318494018807A042188430C220A9942
:109F20005143144A8918887214206946087501261D
:109F3000A079002802D0A0790990BEE018210A98E3
:109F4000484313494118E07A887018210A98484319
:109F50000F494118A07A487018220A9951430C4AB7
:109F60008918081D142219E007800000E420002051
:109F700010250020042500202C24002080B20100A0
:109F8000F3080000FFFF0000E5200020D82000209B
:109F9000D42400205CB20100EC24002021460C31C6
:109FA00000F0FEFF0C210A984843A9494018807A26
:109FB0004021084040286BD10C210A984843A4490D
:109FC0004018807A082108430C220A995143A04A7C
:109FD000891888720C210A98484311464018C07AA3
:109FE000FF2858D10C220A9850430A46811804A829
:109FF00000F0B3F80546002D4BD108A904988870ED
:10A000000498C1B20C220A985043914A8018C17238
:10A01000E07A4007C00F002817D018220A99514350
:10A020008C4A881810222146203100F0B9FF1821EF
:10A030000A98484387494018C07D410849001822C2
:10A040000A985043834A8018C175E07A0007C00F10
:10A05000002819D018220A9951437E4A89180846C7
:10A06000103007222146303100F09AFF18210A985B
:10A07000484378494018C07D0221884318220A9934
:10A080005143744A8918C875012108A8FFF7A8FC34
:10A0900013E0099511E00C210A9848436C494018D7
:10A0A000807A202108430C220A995143684A891872
:10A0B0008872002108A8FFF793FC2AE00C210A9877
:10A0C000484363494018807A402108430C220A998A
:10A0D00051435F4A89188872152069460875002027
:10A0E000099001265C48807A80005C4A115808A8D3
:10A0F00088470546002D01D05948099009E0564887
:10A10000807A8000554A115808A88847099000E0D5
:10A1100000BF00BF002E16D005A908A8099A00F0BC
:10A1200057F86846007D12280DD100BF0C210A980F
:10A13000484347494018807A012802D00A98FEF720
:10A1400028FF00BF00BF00BF78E501218140454ADC
:10A1500012688A4343490A607047F8B505460E46BF
:10A160003F4FBF1C00242EE018206043394940189F
:10A17000C07DFF2826D13078022814D018206043F3
:10A180004018C07D0221884318216143314A891853
:10A19000C8751821614389180846103007223146D6
:10A1A00000F0FEFE0BE0182060432A494018C07DF5
:10A1B0004108490018206043264A8018C1752C7058
:10A1C000002702E0641C072CCED300BF3846F8BD40
:10A1D000F8B504460D4616461F480768324629461C
:10A1E0002046B847F8BD02460020704770B50546C6
:10A1F0000E4631462846FEF7E9FE0446002C02D101
:10A2000000BF00BF0446204670BD024600207047D4
:10A2100070B505460E4631462846FEF736FF044621
:10A22000002C02D100BF00BF0446204670BD01468D
:10A230000020704770B505462846FEF749FF0446E2
:10A24000002C02D100BF00BF0446204670BD0000B4
:10A25000042500202C240020102500206CB20100D1
:10A2600041800000E0200020002314214143FC4AEB
:10A2700053541421414389184B8001231421414335
:10A2800089188B600023142141438918CB60142165
:10A29000414389180B611421414389188B80704711
:10A2A00010B50020EF490880EF490870EC49091FFC
:10A2B000087048708870002403E02046FFF7D4FF40
:10A2C000641C0A2CF9D310BDFFB583B004460F46B9
:10A2D00015460326E448007800280BD1002D06D14E
:10A2E0000698002803D10220DF49087002E001200F
:10A2F000DD490870DC480078030000F092FF07FD9C
:10A3000005314E84BAD7FD00D8484069401C00286A
:10A3100008D001221207126991B2D44A506900F0A4
:10A32000A0FE02E0012000074069401E012109074C
:10A33000096989B2484302900120000700690004BE
:10A34000820C01200007006980B278430146029820
:10A3500021DF0646002E02D10220C3490870D0E05A
:10A36000384620DF0646002E16D1002D11D1069862
:10A3700000280AD12078042803D10720BA490870A0
:10A380000AE00520B849087006E00420B6490870C4
:10A3900002E00320B4490870B3E0B4484069401CAF
:10A3A000002808D001221207126991B2AF4A506901
:10A3B00000F057FE02E0012000074069401E012125
:10A3C0000907096989B2484301210907029009690F
:10A3D00089B2794308462A46029921DF0646002EB3
:10A3E00010D1069800280AD12078042803D106202D
:10A3F0009D49087006E005209B49087002E0042092
:10A40000994908707DE099484069401C002808D0AF
:10A4100001221207126991B2944A506900F021FE9C
:10A4200002E0012000074069401E01210907096977
:10A4300089B24843A90040186188401801210907E2
:10A440000290096989B27943AA008918628888183C
:10A45000069A029921DF0646002E09D120780428A9
:10A4600003D106208049087002E005207E4908706B
:10A4700047E001200007006980B27843AB00C018B4
:10A480000290608882082169029821DF0646002E2A
:10A490000BD1002D06D10698002803D10720724960
:10A4A000087002E00620704908702AE06F48406991
:10A4B000401C002808D001221207126991B26B4A91
:10A4C000506900F0CEFD02E0012000074069401E07
:10A4D00001210907096989B2484301900120000759
:10A4E000006981B2019800F0BCFD029020DF0646B1
:10A4F000002E04D1072000E002E05B49087000E074
:10A5000000BF00BF304607B0F0BDF0B585B00F27E3
:10A510005348001F00781421484351494418E56806
:10A520002078022804D0042823D005286FD16FE0BA
:10A53000206903904B48008886026088801B049045
:10A54000039880190390A088801945190121890278
:10A550000498884206D2049882082846039921DF8D
:10A56000074605E0FF2201322846039921DF07460E
:10A5700081E0A06800013E49401800890490A0686D
:10A580000001401840890390A0680001401840680D
:10A5900002900298A84205D1039904984843618823
:10A5A000884202D0A06802280DD10120000700696E
:10A5B00081B2284600F055FD2A49098846183046E0
:10A5C00020DF074622E001200007006981B228460B
:10A5D00000F047FD064601200007006980B2704385
:10A5E000281A8008019001200007006980B2711CC0
:10A5F000484361884919401A800800903146204636
:10A60000009B019AFFF760FE074600BF33E031E090
:10A6100001200007006981B2284600F022FD0646AD
:10A62000A088411901200007006980B27043081A10
:10A6300080080490A0884019618842180120000712
:10A64000006980B2711C4843801A8008039031462B
:10A650002046039B049AFFF737FE07460BE00000F5
:10A6600020250020F4200020F720002000100010FA
:10A67000E825002000BF00BF002F02D10120FE49C5
:10A680008870384605B0F0BDFFB581B00646174664
:10A690000024F94840780A2837D0F7480078F6496E
:10A6A00049784018C4B20A2C02DB20460A38C4B2EA
:10A6B00014206043F049091D0E54142060434018D3
:10A6C0000761142060434118029805C8CA60886079
:10A6D00014206043E84A121D801804994180142018
:10A6E000604380180A9981800025101F8078002817
:10A6F00005D1FFF70AFF0546112D00D10025DE48E0
:10A700004078401CDC49487000E00425284605B02C
:10A71000F0BDF8B50446D848007814214843D6491E
:10A72000091D0E5C081F007814214843D249091DF9
:10A73000401880680001D1490D58CF480078142195
:10A740004843CD49091D40184088091F00900978E9
:10A7500014225143C84A121D89180B69111F097828
:10A7600014225143C44A121D891808460830224653
:10A770003146A847F8BD10B50024BF4840780028EE
:10A7800009DDFFF7C2FE0446002C04D0112C02D0D4
:10A790002046FFF7BEFF204610BDFEB50546002649
:10A7A000B548807801287DD10020B3498870B4482D
:10A7B0000078082811D1022D03D10020B04908707B
:10A7C00002E00020AF490870FFF7D5FF0646002ED3
:10A7D00002D03046FFF79DFFFEBD022D02D0032DB3
:10A7E00079D174E0A448007814214843A249091D96
:10A7F0004418A5480088401CA349088020780228F6
:10A8000007D10846008880026188884201DB012068
:10A8100000E0002007462078052805D198480078F8
:10A82000072801D1012000E00020029020780428B0
:10A8300005D193480078072801D1012000E00020CD
:10A840000190207804280BD18F480088800261880D
:10A85000884205DB8A480078002801D1012000E009
:10A86000002000900298002807D10198002804D108
:10A870000098002801D1002F1FD0002080490870C7
:10A880003046FFF746FF7C490878FFF7EDFC0020D3
:10A890007D49088078484078401E774948700846CE
:10A8A000007800E01AE0401C0870084600780A288A
:10A8B00003DB084600780A380870FFF75CFF06469D
:10A8C000002E02D03046FFF724FF05E003E00D2004
:10A8D000FFF71FFF00E000BF00BF00BF00BF7BE726
:10A8E00070B5FFF7DDFC00206849088068484069C2
:10A8F000401C002808D001221207126991B2644A54
:10A90000506900F0AEFB02E0012000074069801EA4
:10A9100001210907096989B248435E49086000209E
:10A920005949088000BF0DE000210201534B9950A6
:10A930000201D21811810201D21891810201D218AC
:10A940005181401C0028EFD008204D490870504824
:10A950004069401C002808D001221207126991B2F8
:10A960004B4A506900F07DFB02E00120000740697E
:10A97000401E01210907096989B2484306460120A2
:10A980000007006981B2304600F06BFB054620DF0E
:10A990000446002C04D101203749887039490870D9
:10A9A000204670BDF8B504460D4600BF3548007816
:10A9B000002801D10820F8BD00BF002C01D10E20D5
:10A9C000F9E7002D01D10E20F5E72068002801D11C
:10A9D0000E20F0E7A08801210907096989B28842A1
:10A9E00002DCA088102801DA0720E4E7E0880028CC
:10A9F0001ED027484069401C002808D001221207B9
:10AA0000126991B2224A506900F02BFB02E001204A
:10AA100000074069401E01210907096989B24843BE
:10AA2000E188A28851431B4A12688918884201D2E2
:10AA30000720C0E720798007800F002801D0072079
:10AA4000B9E712480088012801D10420B3E70F4874
:10AA5000008828600F48006868600C49098809016F
:10AA6000064A891868684860084909880901206809
:10AA70005050A08805490FE01C250020E825002043
:10AA8000F7200020F6200020F4200020EC200020F9
:10AA900000100010F02000200988090189180881A1
:10AAA000E088FE4909880901891848810027A6889D
:10AAB000E1884E4300BF781C87B20120000700697F
:10AAC00080B2B04205D201200007006980B2361A78
:10AAD00000E0002601200007006980B2F049096803
:10AAE0004018EF49086001200007006980B2B042B9
:10AAF000E1D9EA4800880001EA4940188781E7481F
:10AB00000088401CE5490880002054E73CB5034616
:10AB100000BFE5480078002801D108203CBD00BFF7
:10AB2000002B01D10E20F9E7002A01D10E20F5E714
:10AB30001868002805D118680001DA4C2058002850
:10AB400001D10720EAE75C68186801940090019C35
:10AB500018680001D34D401900894843201801901E
:10AB6000009800012C4600194089009C24016419BA
:10AB700024896043009C2401641964680019019CC5
:10AB8000A04201D80720C9E7019C009854601060DA
:10AB90000020C3E7F8B504460E4615461F4600BF21
:10ABA000C1480078002801D10820F8BD00BF002E60
:10ABB00001D10E20F9E7002C01D10E20F5E7206825
:10ABC000002805D120680001B6490858002801D1A5
:10ABD0000720EAE720680001B2494018408921684F
:10ABE0000901B04A8918098948432168090189186F
:10ABF000496840186168884201D80720D5E7002DD0
:10AC000006D020680001A74940180089A84201DA4F
:10AC10000720CAE7E81921680901A24A89180989A9
:10AC2000884201DD0720C0E7304600F05CF90028CB
:10AC300004D0384600F057F9002801D11020B4E7BD
:10AC4000606800F050F9002801D11020ADE72B46D4
:10AC50003246214602200097FFF716FDA5E7F8B51A
:10AC600004460E4615461F4600BF8F480078002850
:10AC700001D10820F8BD00BF002E01D10E20F9E758
:10AC8000002C01D10E20F5E72068002805D12068AE
:10AC9000000184490858002801D10720EAE720680C
:10ACA0000001804940184089216809017D4A8918BE
:10ACB0000989484321680901891849684018616871
:10ACC000884201D80720D5E7002D06D02068000172
:10ACD000744940180089A84201DA0720CAE7E81938
:10ACE000216809016F4A89180989884201DD072016
:10ACF000C0E7304600F0F7F8002804D0384600F0EE
:10AD0000F2F8002801D11020B4E7606800F0EBF8F9
:10AD1000002801D11020ADE72B4632462146052000
:10AD20000097FFF7B1FCA5E7FFB581B00C461546CB
:10AD30001E4600BF5C480078002802D1082005B0FC
:10AD4000F0BD00BF002C01D10E20F8E701980028CB
:10AD500001D10E20F3E72068002805D1206800010A
:10AD600050490858002801D10720E8E72068000171
:10AD70004C4940184089216809014A4A89180989C3
:10AD80004843216809018918496840186168884268
:10AD900001D80720D3E7002D06D0206800014149E3
:10ADA00040180089A84201DA0720C8E7A8192168DD
:10ADB00009013C4A89180989884201DD0720BEE75C
:10ADC000019800F090F8002804D0304600F08BF88D
:10ADD000002801D11020B2E7606800F084F8002854
:10ADE00001D11020ABE7606881192A46019800F074
:10ADF000D7F80095206800012A490F580022032146
:10AE00002046019BB847002099E7F8B504460D4657
:10AE100000BF25480078002801D10820F8BD00BFF8
:10AE2000002C01D10E20F9E72068002805D1206808
:10AE300000011C490858002801D10720EEE72068CE
:10AE4000000118494018408921680901154A8918EC
:10AE500009894843216809018918496840186168CF
:10AE6000884201D80720D9E7606800F03CF8002844
:10AE700001D11020D2E723681B010A4FDB19626859
:10AE80005B68D01A226812013B46D218118900F083
:10AE9000E8F800290AD00720C0E70000EC200020D5
:10AEA000F0200020E8250020F620002000202B467E
:10AEB0000246214600900420FFF7E6FB0646304696
:10AEC000ACE7014600BF0C480078002801D10820FB
:10AED000704700BF002901D10E20F9E707484078EC
:10AEE00008600020F4E701468807800F002801D1A0
:10AEF000012070470020FCE7F62000201C250020E0
:10AF0000034610B50B439B070FD1042A0DD308C885
:10AF100010C9121FA342F8D018BA21BA884201D929
:10AF2000012010BD0020C04310BD002A03D0D3076C
:10AF300003D0521C07E0002010BD03780C78401CA1
:10AF4000491C1B1B07D103780C78401C491C1B1B98
:10AF500001D1921EF1D1184610BD000030B5441C3D
:10AF600003E00178401C00290DD08107F9D10B4B7B
:10AF7000DD0104C8D11A91432940FAD0001B0A060A
:10AF800003D0C01E30BD001B30BD0A0401D0801E9E
:10AF900030BD0902FCD0401E30BD0000010101019E
:10AFA000F8B5042A2CD3830712D00B78491C037000
:10AFB000401C521E83070BD00B78491C0370401CA9
:10AFC000521E830704D00B78491C0370401C521E8C
:10AFD0008B079B0F05D0C91ADF002023DE1B08C991
:10AFE0000AE0FBF7C1F8F8BD1D4608C9FD401C4644
:10AFF000B4402C4310C0121F042AF5D2F308C91A1A
:10B00000521EF0D40B78491C0370401C521EEAD427
:10B010000B78491C0370401C012AE4D409780170A4
:10B02000F8BD01E004C0091F0429FBD28B0701D53C
:10B030000280801CC90700D00270704700290BD025
:10B04000C30702D00270401C491E022904D38307A3
:10B0500002D50280801C891EE3E70022EEE7002271
:10B06000DFE7002203098B422CD3030A8B4211D362
:10B0700000239C464EE003460B433CD40022430889
:10B080008B4231D303098B421CD3030A8B4201D379
:10B0900094463FE0C3098B4201D3CB01C01A524111
:10B0A00083098B4201D38B01C01A524143098B4261
:10B0B00001D34B01C01A524103098B4201D30B014A
:10B0C000C01A5241C3088B4201D3CB00C01A52416F
:10B0D00083088B4201D38B00C01A524143088B4234
:10B0E00001D34B00C01A5241411A00D201465241CD
:10B0F000104670475DE0CA0F00D04942031000D3EC
:10B100004042534000229C4603098B422DD3030A40
:10B110008B4212D3FC22890112BA030A8B420CD350
:10B12000890192118B4208D3890192118B4204D379
:10B1300089013AD0921100E08909C3098B4201D3F9
:10B14000CB01C01A524183098B4201D38B01C01A33
:10B15000524143098B4201D34B01C01A52410309AA
:10B160008B4201D30B01C01A5241C3088B4201D359
:10B17000CB00C01A524183088B4201D38B00C01A06
:10B180005241D9D243088B4201D34B00C01A5241DD
:10B19000411A00D20146634652415B10104601D36A
:10B1A0004042002B00D54942704763465B1000D3F4
:10B1B000404201B50020C046C04602BD70477047FE
:10B1C0007047754600F022F8AE46050069465346C2
:10B1D000C008C000854618B020B5FAF7F5FF60BC7E
:10B1E00000274908B6460026C0C5C0C5C0C5C0C5B1
:10B1F000C0C5C0C5C0C5C0C5403D49008D467047EB
:10B200000446C046C0462046FAF798FF00487047FB
:10B21000F825002001491820ABBEFEE726000200F9
:10B22000704730B47446641E2578641CAB4204D366
:10B23000635D5B00E31830BC18471D46F8E700006B
:10B24000141801000F1801000A180100E7A10100FD
:10B25000CD8F010085900100EDA101000BA201003E
:10B260008B900100CB90010011A201002FA20100E0
:10B27000D19001004591010035A20100FFFFFFFFC1
:10B280002E2E5C2E2E5C2E2E5C2E2E5C2E2E5C53D3
:10B290006F757263655C626C655C64657669636535
:10B2A0005F6D616E616765725C6465766963655F39
:10B2B0006D616E616765725F7065726970686572F5
:10B2C000616C2E6300000000D8B201000020002055
:10B2D000F8000000046101000024F400FFFF0000FA
:10B2E000000000000000000000000000000000005E
:10B2F000000000000000000000000000000000004E
:10B30000000000000000000000000000000000003D
:10B31000000000000000000000000000000000002D
:10B32000000000000000000000000000000000001D
:10B33000000000000000000000000000000000000D
:10B3400000000000000000000000000000000000FD
:10B3500000000000000000000000000000000000ED
:10B3600000000000000000000000000000000000DD
:10B3700000000000000000000000000000000000CD
:10B3800000000000000000000000000000000000BD
:10B3900000000000000000000000000000000000AD
:10B3A000000000000000000000000000000000009D
:10B3B000000000000000000000000000000000008D
:10B3C000000000000000000000000000000000007D
:04000005000160C1D5
:00000001FF
