:020000040001F9
:1060000008280020F56001000F6101001161010006
:106010000000000000000000000000000000000080
:1060200000000000000000000000000013610100FB
:106030000000000000000000156101001761010070
:106040001961010019610100196101001961010064
:1060500019610100000000001961010019610100CF
:106060001961010019610100196101001961010044
:106070001961010019610100196101001961010034
:106080001961010019610100196101001961010024
:106090001961010019610100196101001961010014
:1060A00019610100196101000000000000000000FA
:1060B00000000000000000000000000000000000E0
:1060C0000348854600F032F8004800470D620100A1
:1060D00008280020401E00BF00BF00BF00BF00BF57
:1060E00000BF00BF00BF00BF00BF00BF00BFF1D1B5
:1060F000704700000321094802680A43026008480B
:1061000002680A4302600748804707480047FEE7E5
:10611000FEE7FEE7FEE7FEE7FEE70000240500409D
:106120005405004051610100C1600100064C012589
:10613000064E05E0E36807CC2B430C3C984710342F
:10614000B442F7D3FFF7C0FF80620100A0620100F4
:1061500010B500F037F8002805D00E490C4848600B
:10616000C8130D4988610D48018CC9B201290ED1AF
:10617000818C09070BD1018D0906090F042906D16D
:10618000808D0006000F02D105490120886010BDF6
:10619000DFFF07C000050040006C0040C00F00F0AA
:1061A0000006004002E008C8121F08C1002AFAD108
:1061B00070477047002001E001C1121F002AFBD187
:1061C000704700001048018CC9B2012917D1818C99
:1061D000090714D1018D09060A0F03D1828D120619
:1061E000120F0ED0090F012903D1828D1206120F52
:1061F00007D0032903D1808D0006000F01D00020B5
:106200007047012070470000C00F00F000200321FC
:10621000104A01252B468340DB011B0F02D083006F
:106220009B181960401C2028F4D30B4E0B4F002400
:106230007268395D2846884001469043B06011403D
:10624000F160FF20F53000F00BF8641C042CEFDB4C
:10625000EDE7000000070050000500507C620100DF
:1062600031B5054C04E0401E00902046FFF732FF98
:1062700000980028F7D138BDE7030000151617185D
:10628000A06201000020002004000000A4610100C1
:10629000A46201000420002004080000B461010091
:0462A0000024F400E2
:04000005000160C1D5
:00000001FF
